:020000040800F2
:10000000C00D002079060008D9060008D9060008AE
:10001000D9060008D9060008D9060008000000002B
:10002000000000000000000000000000D9060008E9
:10003000D906000800000000D9060008D90600080B
:10004000D9060008D9060008D9060008D906000814
:10005000D9060008D9060008D9060008D906000804
:10006000D9060008D9060008D9060008D9060008F4
:10007000D9060008D9060008D9060008D9060008E4
:10008000D9060008D9060008D9060008D9060008D4
:10009000D9060008D9060008D9060008D9060008C4
:1000A000D9060008D9060008D9060008D9060008B4
:1000B000D9060008A9040008D9060008D9060008D6
:1000C000D9060008D9060008D9060008D906000894
:1000D000D9060008D906000859450008D9060008C5
:1000E00029430008D9060008D9060008D9060008E7
:1000F000D9060008D9060008D9060008D906000864
:10010000D9060008D9060008D9060008D906000853
:10011000D9060008D9060008D9060008D906000843
:10012000D9060008D9060008D9060008D906000833
:100130005FF808F180B500AF6FF0040004F07EF9BD
:100140000A4B1A680A4BA3FB02135B0DDAB2094B88
:100150001A70084B1B781A465201D21A92001344A7
:10016000DB009AB2044B1A8080BD00BF0000002063
:1001700083DE1B436C0800206E08002080B485B02D
:1001800000AF7860154B164A1278796801FB02F2CD
:100190005A60124B00229A60104B104A126842F0CB
:1001A00001021A600D4B1B68FB60FB6803F0010342
:1001B000002B04D0FB6803F48033002BF2D0074BF4
:1001C000064A126822F001021A60044B00229A606B
:1001D0001437BD465DF8047B704700BF10E000E0B7
:1001E0006C08002080B485B000AF0346FB80154B3F
:1001F000FA881549098801FB02F25A60114B002266
:100200009A60104B0F4A126842F001021A600D4BBF
:100210001B68FB60FB6803F00103002B04D0FB6844
:1002200003F48033002BF2D0064B064A126822F00A
:1002300001021A60034B00229A601437BD465DF834
:10024000047B704710E000E06E08002080B485B0A9
:1002500000AF786039600023FB817B681B88FB81DD
:100260007A682E4B9A4213D07A682D4B9A420FD05F
:100270007B68B3F1804F0BD07A682A4B9A4207D043
:100280007A68294B9A4203D07A68284B9A4208D15F
:10029000FB8923F07003FB813B685A88FB89134379
:1002A000FB817A68224B9A420CD07A68214B9A42A1
:1002B00008D0FB8923F44073FB813B68DA88FB8913
:1002C0001343FB817B68FA891A803B689A887B68B4
:1002D0009A853B681A887B681A857A680F4B9A4220
:1002E0000FD07A680E4B9A420BD07A68124B9A4222
:1002F00007D07A68114B9A4203D07A68104B9A4221
:1003000004D13B681B7A1A467B681A867B680122F7
:100310009A821437BD465DF8047B7047002C01407B
:10032000003401400004004000080040000C004080
:100330000010004000140040004001400044014013
:100340000048014080B483B000AF78600B46FB707A
:10035000FB78002B08D07B681B889BB243F001031D
:100360009AB27B681A8007E07B681B889BB223F0F7
:1003700001039AB27B681A800C37BD465DF8047B96
:10038000704700BF80B483B000AF786013460A4660
:100390007A807B707B78002B08D07B689B899AB22F
:1003A0007B8813439AB27B689A8109E07B689B89BA
:1003B0009AB27B88DB439BB213409AB27B689A81E6
:1003C0000C37BD465DF8047B704700BF80B485B034
:1003D00000AF78600B467B800023FB730023BB815A
:1003E00000237B817B681B8A9AB27B881340BB8188
:1003F0007B689B899AB27B8813407B81BB89002BE9
:1004000005D07B89002B02D00123FB7301E0002380
:10041000FB73FB7B18461437BD465DF8047B7047C1
:1004200080B483B000AF78600B467B807B88DB4371
:100430009AB27B681A820C37BD465DF8047B704720
:1004400080B586B000AF0346FB800220012101F099
:1004500039F9FB883B8241F61F43BB8100237B8235
:100460000023FB8107F10C030E481946FFF7EEFE4F
:100470000C4801210122FFF785FF1D233B72002359
:100480007B720323BB720123FB7207F1080318463A
:1004900003F074FF03480121FFF754FF1837BD46EE
:1004A00080BD00BF0004004080B500AF06480121B8
:1004B000FFF78CFF0346002B05D003480121FFF70F
:1004C000AFFF04F08BF980BD0004004080B500AFA1
:1004D000154B154A126842F001021A60124A124B7B
:1004E0005968124B0B4053600F4A0F4B1B6823F0A7
:1004F000847323F4803313600B4B0B4A126822F48D
:1005000080221A60084B084A526822F4FE025A60A0
:10051000054B4FF41F029A6000F00CF8044B4FF0AB
:1005200000629A6080BD00BF001002400000FFF82A
:1005300000ED00E080B500AF00F002F880BD00BF24
:1005400080B483B000AF00237B6000233B603A4B54
:10055000394A126842F480321A60374B1B6803F440
:1005600000333B607B6801337B603B68002B03D129
:100570007B68B3F5A06FF0D12F4B1B6803F40033F9
:10058000002B02D001233B6001E000233B603B686D
:10059000012B4BD1294B294A126842F010021A60F4
:1005A000264B264A126822F003021A60234B234A84
:1005B000126842F002021A601F4B1F4A52685A60CA
:1005C0001D4B1D4A52685A601B4B1B4A526842F42D
:1005D00080625A60184B184A526822F47C125A60A2
:1005E000154B154A526842F4E8125A60124B124AEF
:1005F000126842F080721A6000BF0F4B1B6803F054
:100600000073002BF9D00C4B0B4A526822F0030206
:100610005A60094B084A526842F002025A6000BF11
:10062000054B5B6803F00C03082BF9D10C37BD4672
:100630005DF8047B704700BF0010024000200240BC
:1006400080B582B000AF0820012101F01DF87823A9
:10065000BB801023FB710323BB713B1D054819466A
:1006600000F02CFB0348782100F0FEFB0837BD4664
:1006700080BD00BF000C014080B582B000AF114BBF
:100680007B60114B3B6007E03B681A1D3A607A685B
:10069000111D796012681A603A680C4B9A42F3D3C4
:1006A0000B480C494FF000028842B8BF40F8042BB9
:1006B000FFF6FAAFFFF70AFF00F038FC0837BD4637
:1006C00080BD00BF60590008000000206C080020B9
:1006D0006C080020C009002080B400AFFEE700BF16
:1006E00080B582B000AF0820012100F0CDFF4FF4AB
:1006F0004053BB801023FB710323BB713B1D0D488E
:10070000194600F0DBFA0B484FF4005100F0BAFB39
:1007100008484FF4805100F0A7FB4FF48043BB80A2
:100720004823FB713B1D0348194600F0C7FA083700
:10073000BD4680BD000C014080B582B000AFFFF720
:10074000CFFF2020012100F09FFF4FF44073BB80BA
:100750001023FB710323BB713B1D0B48194600F0AE
:10076000ADFA09484FF4407100F07EFB4FF480630E
:10077000BB804823FB713B1D0348194600F09EFADD
:100780000837BD4680BD00BF0014014080B500AFF2
:10079000094B00221A600420FFF7F0FC074B0022EF
:1007A0001A600220FFF7EAFC044B01221A600120C4
:1007B000FFF7E4FC80BD00BFB4812142B08121423B
:1007C00080B582B000AF0023FB710023BB80002303
:1007D000FB7118E0104B00221A600120FFF7CEFCDD
:1007E0000D4B01221A60BB885B00BB800B4B1B6862
:1007F000002B02D0BB880133BB800120FFF7BEFC79
:10080000FB790133FB71FB790F2BE3D9BB881846C9
:100810000837BD4680BD00BFB481214238812142E6
:1008200080B586B000AF0346FB710023FB81002337
:10083000FB8200233B61FB79032B27D801A252F8EE
:1008400023F000BF5508000863080008710800087D
:100850007F080008404B00221A60404B00221A60BB
:1008600015E03D4B00221A603C4BFF221A600EE05F
:10087000394BFF221A60394B00221A6007E0364BD1
:10088000FF221A60354BFF221A6000E000BF0023F0
:10089000FB822AE000F0B0FBFFF778FF04E0FB8A60
:1008A0000133FB8200F0A8FB2D4B1B78DBB2002B41
:1008B000F5D000F0A1FB2A4B1B78DBB2012B0CD149
:1008C000284B284A1268D2431A60FFF779FF034683
:1008D0003A6913443B6100F08FFB214B00221A70F0
:1008E00000F08AFBFB8A0133FB82FA8A41F28733EC
:1008F0009A42CFD93A6913469B0013445B001B0C04
:10090000184604F057F902460B46104619460EA346
:10091000D3E9002304F0EEFA02460B4610461946CE
:100920000BA3D3E9002304F007F802460B46104658
:10093000194604F0C7FB0346FB81FB8918461837AC
:10094000BD4680BDAFF3008066666666666614408D
:10095000000000000057A540A4812242A08122424D
:10096000780800209481214280B400AF074B084AE8
:100970001A61064B074A1A60044B074A5A60034B38
:10098000064ADA60BD465DF8047B7047B008002077
:100990001D470008360900203809002039090020C9
:1009A00080B582B000AF0023FB800023BB80002312
:1009B0007B8000233B800020FFF732FF0346FB8053
:1009C0000120FFF72DFF0346BB800220FFF728FF21
:1009D00003467B800320FFF723FF03463B80224B27
:1009E0009B680C33FA88120A92B2D2B21A701E4B6C
:1009F0009B680D33FA88D2B21A701B4B9B680E337A
:100A0000BA88120A92B2D2B21A70174B9B680F338F
:100A1000BA88D2B21A70144B9B6810337A88120AC3
:100A200092B2D2B21A70104B9B6811337A88D2B24C
:100A30001A700D4B9B6812333A88120A92B2D2B2E6
:100A40001A70094B9B6813333A88D2B21A7000238C
:100A5000FB800023BB8000237B8000233B8000F0D1
:100A6000CBFA0837BD4680BDB008002080B582B003
:100A700000AF0023FB710023BB80162004F042FB73
:100A800003461A46354B9A60344B9B68002B06D0C0
:100A9000324B9B6818460021162204F0DFFD2F4BD5
:100AA0009B68AA221A702D4B9B68013355221A703D
:100AB0002A4B9B68023314221A70284B9B6803331D
:100AC000264A12681278D2B262F07F02D2B21A704D
:100AD000224B9B6804330A221A7001F0E5FA01F0F8
:100AE0006FFBFFF75DFF0023FB710BE01B4B9A6868
:100AF000FB7913441B781A46BB881344BB80FB79EF
:100B00000133FB71FB79132BF0D9144B9A68FB79F5
:100B10001344BA88120A92B2D2B21A700F4B9A6872
:100B2000FB7901331344BA88D2B21A700B4B1B699C
:100B30000A4A9168094A9268023212780232D2B2A5
:100B4000084611469847054B9B68184604F0E2FAA0
:100B500000F052FA0837BD4680BD00BFB008002043
:100B600080B582B000AF0023FB710023BB8016204C
:100B700004F0C8FA03461A46354B9A60344B9B681A
:100B8000002B06D0324B9B6818460021162204F039
:100B900065FD2F4B9B68AA221A702D4B9B68013371
:100BA00055221A702A4B9B68023314221A70284B64
:100BB0009B680333264A12681278D2B262F07F0231
:100BC000D2B21A70224B9B6804330A221A7001F0C9
:100BD0006BFA01F08FFEFFF7E3FE0523FB710BE0DC
:100BE0001B4B9A68FB7913441B781A46BB88134445
:100BF000BB80FB790133FB71FB79132BF0D9144BCC
:100C00009A68FB791344BA88120A92B2D2B21A7067
:100C10000F4B9A68FB7901331344BA88D2B21A7029
:100C20000B4B1B690A4A9168094A92680232127892
:100C30000232D2B2084611469847054B9B681846C7
:100C400004F068FA00F0D8F90837BD4680BD00BF4F
:100C5000B008002080B500AF00F0CEF902F0DAFD58
:100C600080BD00BF80B500AF00F0C6F903F0AAF95F
:100C700080BD00BF80B582B000AF0346FB71FB7939
:100C8000513B032B16D801A252F823F09D0C00080B
:100C9000A30C0008A90C0008AF0C0008FFF7E6FE43
:100CA00009E0FFF7D7FF06E0FFF75AFF03E0FFF781
:100CB000D9FF00E000BF0837BD4680BD80B489B0D1
:100CC00000AF786039600023FB6100233B610023A3
:100CD000BB610023FB6000237B610023BB603B689A
:100CE000DB7803F00F03FB613B68DB7803F0100354
:100CF000002B04D03B689B78FA691343FB613B6887
:100D00001B88DBB2002B44D07B681B687B6100230F
:100D1000BB6138E0BB69012202FA03F3FB603B6868
:100D20001B881A46FB6813403B613A69FB689A428C
:100D300026D1BB699B00FB60FB680F2202FA03F31C
:100D4000BB60BB68DB437A6913407B61FB68FA696F
:100D500002FA03F37A6913437B613B68DB78282B43
:100D600005D1BB6901229A407B685A6108E03B6863
:100D7000DB78482B04D1BB6901229A407B681A6159
:100D8000BB690133BB61BB69072BC3D97B687A6937
:100D90001A603B681B88FF2B46D97B685B687B61C8
:100DA0000023BB613AE0BB690833012202FA03F376
:100DB000FB603B681B881A46FB6813403B613A693D
:100DC000FB689A4227D1BB699B00FB60FB680F223E
:100DD00002FA03F3BB60BB68DB437A6913407B61B3
:100DE000FB68FA6902FA03F37A6913437B613B6893
:100DF000DB78282B05D1BB69083301229A407B6838
:100E00005A613B68DB78482B05D1BB690833012266
:100E10009A407B681A61BB690133BB61BB69072BD0
:100E2000C1D97B687A695A602437BD465DF8047B76
:100E3000704700BF80B485B000AF78600B467B8000
:100E40000023FB737B689A687B881340002B02D0D9
:100E50000123FB7301E00023FB73FB7B184614376F
:100E6000BD465DF8047B704780B483B000AF786006
:100E70000B467B807A887B681A610C37BD465DF82B
:100E8000047B704780B483B000AF78600B467B80F2
:100E90007A887B685A610C37BD465DF8047B7047E1
:100EA00090B484B000AF02460B46FA71BB710023C8
:100EB000FB60BB7903F003039B000F2202FA03F3EC
:100EC000FB60154BBA799208D2B21349B879800801
:100ED000C0B2023051F82000F968C9430140023223
:100EE00043F822100C4BBA799208D2B20A49B87969
:100EF0008008C0B2023051F82000FC79B97901F0C5
:100F00000301890004FA01F10143023243F822107F
:100F10001037BD4690BC70470000014080B500AF5F
:100F20004FF4A06003F018FA80BD00BF80B500AF99
:100F3000FFF700F9FFF7F2FF4FF4614003F09AFA70
:100F4000FFF77EFB40F2E730FFF77AFA1B4803F029
:100F50001FFC4FF47A70FFF745F9042040F271212D
:100F600000F030F803F0A8F900F040FFFFF7E4FBD1
:100F700000F066FC40200021002200F04DFD4220E0
:100F80000021002200F048FDFFF7EEFC02F074F8AB
:100F900002F04AF80A4B5B681B78DBB2012B0AD1DE
:100FA000074B1B681B78DBB21846FFF763FE044B48
:100FB0005B6800221A7000F01FF8EBE75059000838
:100FC000B008002080B582B000AF02460B46FA712F
:100FD000BB8045F2555003F063FCFB79184603F0E3
:100FE0006FFCBB88184603F07BFC03F089FC03F020
:100FF00093FC0837BD4680BD80B500AF03F080FC90
:1010000080BD00BF80B483B000AF78600B46FB703A
:101010007B68FA781A70012318460C37BD465DF8D4
:10102000047B704780B485B000AF786039600023DE
:10103000FB600AE07B685A1C7A603A68511C396090
:1010400012781A70FB680133FB603B681B78002B39
:10105000F0D1FB6818461437BD465DF8047B704735
:1010600080B586B000AFF8607A603B600B46FB72DB
:1010700000237B617B68013B7B603B68092B10D9B7
:101080003A681E4BA3FB0213DB08FA7AF868114694
:101090007A68FFF7E5FF78617B69FA681344FB60C3
:1010A00011E00DE0FB7AF8681946FFF7ABFFFB682B
:1010B0000133FB607B6901337B617B68013B7B60B3
:1010C0007B68002BEEDC39680C4BA3FB0123DA08AC
:1010D00013469B0013445B00CA1AD3B23033DBB211
:1010E000F8681946FFF78EFF03467A6913447B615F
:1010F0007B6918461837BD4680BD00BFCDCCCCCC2F
:1011000080B586B000AFF8607A603B600B46FB723A
:1011100000237B613B68002B03DA3B685B423B6149
:1011200001E03B683B617B68013B7B603B69092BCD
:1011300021D93B68002B0DDA3A692F4BA3FB021330
:10114000DB085B42FA7AF86811467A68FFF7D8FF45
:1011500078610BE03A69284BA3FB0213DB08FA7AAB
:10116000F86811467A68FFF7CBFF78617B69FA6807
:101170001344FB6026E03B68002B03DA7B68013BED
:101180007B600EE00DE0FB7AF8681946FFF73AFF46
:10119000FB680133FB607B6901337B617B68013B4A
:1011A0007B607B68002BEEDC3B68002B0ADAF8687A
:1011B0002D21FFF727FF03467A6913447B61FB6803
:1011C0000133FB6039690C4BA3FB0123DA0813469A
:1011D0009B0013445B00CA1AD3B23033DBB2F86809
:1011E0001946FFF70FFF03467A6913447B617B6959
:1011F00018461837BD4680BDCDCCCCCC80B588B064
:1012000002AFF8607A600A46FA72BB7200237B6113
:101210007B68013B7B603B6A1B09002B12D03B6A59
:101220001909FA7ABB7A0091F86811467A68FFF7D3
:10123000E5FF03467A6913447B617B69FA681344CE
:10124000FB6011E00DE0FB7AF8681946FFF7DAFE63
:10125000FB680133FB607B6901337B617B68013B89
:101260007B607B68002BEEDC3B6A03F00F03092BED
:101270000BD83B6ADBB203F00F03DBB23033DBB2D7
:10128000F8681946FFF7BEFE19E0BB7A002B0BD0B9
:101290003B6ADBB203F00F03DBB23733DBB2F86833
:1012A0001946FFF7AFFE0AE03B6ADBB203F00F031B
:1012B000DBB25733DBB2F8681946FFF7A3FE7B6950
:1012C00001337B617B6918461837BD4680BD00BF7E
:1012D00080B58AB002AFF860B9607A603B600023E5
:1012E000BB6100237B61FB68002B03D0FB680022FD
:1012F0001A70F8E0F7E07B681B78252B0BD0FB68B1
:101300005A1CFA607A68511C796012781A707B69ED
:1013100001337B61E7E07B6801331B78252B0BD120
:10132000FB685A1CFA6025221A707B6802337B60C6
:101330007B6901337B61D6E02023FB770023BB77F9
:101340007B6801337B607B681B78302B05D13023B1
:10135000FB777B6801337B600FE00EE0BB7F1A46B2
:10136000920013445B00DAB27B681B781344DBB253
:10137000303BBB777B6801337B607B681B782F2B0E
:1013800003D97B681B78392BE8D9BA7F7B69134472
:101390001A46BB689A4205D9BB68DAB27B69DBB2F0
:1013A000D31ABB777B681B78583B202B00F28D80CB
:1013B00001A252F823F000BF85140008CB140008E6
:1013C000CB140008CB140008CB140008CB14000881
:1013D000CB140008CB140008CB140008CB14000871
:1013E000CB140008B51400083D140008CB14000805
:1013F000CB140008CB140008CB1400083D140008DF
:10140000CB140008CB140008CB140008CB14000840
:10141000CB140008CB140008CB140008CB14000830
:10142000CB140008A1140008CB14000853140008C2
:10143000CB140008CB14000869140008BA7F3B687D
:10144000191D39601B68F97FF868FFF759FEB8610C
:101450003EE0BA7F3B68191D39601B68F97FF86868
:10146000FFF7FEFDB86133E0BA7F3B68191D3960B4
:101470001968FB7F0091F86819460023FFF7BEFE4C
:10148000B86125E0BA7F3B68191D39601968FB7F98
:101490000091F86819460123FFF7B0FEB86117E024
:1014A0003B681A1D3A601B68F8681946FFF7BAFDD9
:1014B000B8610DE03B681A1D3A601B68DBB2F86842
:1014C0001946FFF79FFDB86102E04FF0FF3325E0BA
:1014D0007B6801337B60BB69FA681344FB607A69FF
:1014E000BB6913447B617B681B78002B04D07A694D
:1014F000BB689A42FFF4FFAE7A69BB689A4203D296
:10150000FB6800221A7008E0FB68013BFB60FB6887
:1015100000221A707B69013B7B617B69184620378A
:10152000BD4680BD80B487B000AF786000237B618A
:1015300000233B610023FB600023BB604D4B5B68D5
:1015400003F00C037B617B69042B07D0082B09D0C7
:10155000002B34D17B68484A1A6034E07B68464AE5
:101560001A6030E0434B5B6803F470133B61414BFE
:101570005B6803F48033FB603B699B0C02333B6187
:10158000FB68002B06D13B693C4A02FB03F27B68F7
:101590001A6013E0374B5B6803F40033002B06D06E
:1015A0003B69364A02FB03F27B681A6006E03B693E
:1015B000314A02FB03F27B681A6004E003E07B68B7
:1015C0002D4A1A6000BF2B4B5B6803F0F0037B6170
:1015D0007B691B097B612A4A7B6913441B78DBB258
:1015E000BB607B681A68BB68DA407B685A60214B35
:1015F0005B6803F4E0637B617B691B0A7B61204AC3
:101600007B6913441B78DBB2BB607B685A68BB689C
:10161000DA407B689A60174B5B6803F460537B6128
:101620007B69DB0A7B61164A7B6913441B78DBB25A
:10163000BB607B685A68BB68DA407B68DA600D4B38
:101640005B6803F440437B617B699B0B7B610D4AC4
:101650007B6913441B78DBB2BB607B68DA68BB68CC
:10166000B2FBF3F27B681A611C37BD465DF8047B60
:10167000704700BF0010024000127A0000093D00D0
:10168000480400205804002080B483B000AF786084
:101690000B46FB70FB78002B06D0094B084A91697A
:1016A0007A680A439A6106E0054B054A91697A68AF
:1016B000D2430A409A610C37BD465DF8047B7047FF
:1016C0000010024080B483B000AF78600B46FB701E
:1016D000FB78002B06D0094B084AD1697A680A4387
:1016E000DA6106E0054B054AD1697A68D2430A40BF
:1016F000DA610C37BD465DF8047B7047001002408C
:1017000080B485B000AF78600023FB60324BFB6093
:101710007B689B79002B4DD02F4B2F4A11687A683C
:101720001268D2430A401A602B4B2B4A51687A68E0
:101730001268D2430A405A607B681B79FA681344E6
:10174000FB60FB68FA6811687A6812680A431A60DD
:10175000214B214A91687A681268D2430A409A6004
:101760001D4B1D4AD1687A681268D2430A40DA607C
:101770007B685B79102B0ED1174B174A91687A68FA
:1017800012680A439A60144B134AD1687A68126847
:101790000A43DA601BE0104BFB607B685B79FA68F8
:1017A0001344FB60FB68FA6811687A6812680A43A0
:1017B0001A600CE07B681B79FA681344FB60FB68D5
:1017C000FA6811687A681268D2430A401A601437BE
:1017D000BD465DF8047B70470004014080B485B0CD
:1017E00000AF78600023FB730023BB600C4B1A68CA
:1017F0007B681340BB600A4B5A697B681340002B1F
:1018000005D0BB68002B02D00123FB7301E000234D
:10181000FB73FB7B18461437BD465DF8047B7047AD
:101820000004014080B483B000AF7860034B7A6855
:101830005A610C37BD465DF8047B704700040140D7
:1018400080B582B000AF08200121FFF71DFFC02343
:10185000BB801023FB710323BB713B1D0548194658
:10186000FFF72CFA0348C021FFF7FEFA0837BD4600
:1018700080BD00BF000C014080B500AF0F4B0F4A88
:10188000126822F070421A600C4B0C4A126842F047
:1018900040521A600A4B01221A600A4B01221A6058
:1018A0000420FEF76BFC064B00221A600420FEF7B2
:1018B00065FC044B00221A6080BD00BF000C014093
:1018C0009C8121429881214280B500AF0F4B0F4A85
:1018D000126822F070421A600C4B0C4A126842F0F7
:1018E00040521A600A4B00221A600A4B00221A600A
:1018F0000420FEF743FC064B01221A60054B01222F
:101900001A600420FEF73AFC80BD00BF000C0140C5
:10191000988121429C81214280B582B000AF002392
:10192000FB71174B164A126822F070421A60144B72
:10193000134A126842F000421A60124B01221A60E8
:101940000120FEF71BFC104B01221A600120FEF75C
:1019500015FC09E0FB790133FB71FB79FA2B03D904
:10196000FFF7B2FF012307E0084B1B68002BF1D102
:10197000054B00221A60002318460837BD4680BD7B
:10198000000C01409C812142988121421C8121420E
:1019900080B584B000AF0346FB711C4B1B4A126834
:1019A00022F070421A60194B184A126842F04052F5
:1019B0001A60174B00221A600023FB731FE0FB79AB
:1019C0005BB2002B03DA134B01221A6002E0114BC9
:1019D00000221A60FB795B00FB710220FEF7CEFB50
:1019E0000B4B01221A600220FEF7C8FB084B0022B5
:1019F0001A600220FEF7C2FBFB7B0133FB73FB7B0B
:101A0000072BDCD91037BD4680BD00BF000C01405C
:101A1000988121429C81214280B582B000AF13465B
:101A20000246FA710A46BA717B71FFF725FFFB790E
:101A300023F00103DBB21846FFF7AAFFFFF76CFFA4
:101A40000620FFF7A5FFFFF767FFBB791846FFF7F2
:101A50009FFFFFF761FF7B791846FFF799FFFFF7BC
:101A60005BFFFFF731FF0A20FEF7BCFBFFF7C4FA6C
:101A70000837BD4680BD00BF80B582B000AF1346B9
:101A80000246FA710A46BA717B71FFF7F5FEFB79DF
:101A900023F00103DBB21846FFF77AFFFFF73CFFA4
:101AA0000220FFF775FFFFF737FFBB791846FFF7F6
:101AB0006FFFFFF731FF7B791846FFF769FFFFF7EC
:101AC0002BFFFFF701FF0A20FEF78CFBFFF794FACC
:101AD0000837BD4680BD00BF80B58CB000AF7860D0
:101AE00039600023FB620023BB6200237B6200237A
:101AF0003B620023FB617B68FB617B681B8A9BB2B6
:101B0000FB62FA6A4CF6FF731340FB623B68DB88AA
:101B1000FA6A1343FB62FB6A9AB27B681A827B689B
:101B20009B899BB2FB62FA6A4EF6F3131340FB6289
:101B30003B689A883B681B8913439AB23B685B8970
:101B400013439BB2FA6A1343FB62FB6A9AB27B6847
:101B50009A817B689B8A9BB2FB62FA6A4FF6FF43CD
:101B60001340FB623B689B89FA6A1343FB62FB6A82
:101B70009AB27B689A8207F108031846FFF7D2FCF5
:101B8000FA69304B9A4202D17B69BB6201E03B6942
:101B9000BB627B689B899BB29BB21BB2002B0CDAA9
:101BA000BA6A13469B0013449A001A443B681B68A8
:101BB0005B00B2FBF3F37B620BE0BA6A13469B0057
:101BC00013449A001A443B681B689B00B2FBF3F372
:101BD0007B627A6A1C4BA3FB02135B091B01FB624D
:101BE000FB6A1B09642202FB03F37A6AD31A3B6285
:101BF0007B689B899BB29BB21BB2002B0DDA3B6AC0
:101C0000DB0003F13202104BA3FB02135B0903F06C
:101C10000703FA6A1343FB620CE03B6A1B0103F102
:101C20003202094BA3FB02135B0903F00F03FA6AAC
:101C30001343FB62FB6A9AB27B681A813037BD4658
:101C400080BD00BF003801401F85EB5180B483B0D8
:101C500000AF78600B46FB70FB78002B08D07B68E8
:101C60009B899BB243F400539AB27B689A8107E048
:101C70007B689B899BB223F400539AB27B689A815C
:101C80000C37BD465DF8047B704700BF80B487B059
:101C900000AF786013460A467A807B7000233B6170
:101CA0000023FB600023BB6000237B617B687B61BA
:101CB0007B88DBB25B09DBB23B617B8803F01F03EF
:101CC000FB60FB68012202FA03F3BB603B69012B56
:101CD00003D17B690C337B6109E03B69022B03D1A3
:101CE0007B6910337B6102E07B6914337B617B7815
:101CF000002B06D07B697A691168BA680A431A60BA
:101D000006E07B697A691168BA68D2430A401A60B2
:101D10001C37BD465DF8047B704700BF80B483B0BC
:101D200000AF78607B689B889BB2C3F308039BB2CB
:101D300018460C37BD465DF8047B704780B487B009
:101D400000AF78600B467B800023FB6000237B6143
:101D50000023BB600023FB747B88DBB25B09DBB232
:101D6000BB607B8803F01F037B617B69012202FA61
:101D700003F37B61BB68012B06D17B689B899BB217
:101D80007A6913407B610FE0BB68022B06D17B6848
:101D90001B8A9BB27A6913407B6105E07B689B8A52
:101DA0009BB27A6913407B617B881B0A9BB2FB6004
:101DB000FB68012202FA03F3FB607B681B889BB27D
:101DC000FA681340FB607B69002B05D0FB68002B91
:101DD00002D00123FB7401E00023FB74FB7C184656
:101DE0001C37BD465DF8047B704700BF80B582B0EC
:101DF00000AF04200121FFF747FC08200121FFF775
:101E000043FC10200121FFF73FFC20200121FFF7B8
:101E10003BFC40200121FFF737FC80200121FFF728
:101E200033FC4FF47943BB804823FB713B1D2548AD
:101E30001946FEF743FF4FF44063BB804823FB7114
:101E40003B1D21481946FEF739FF4FF4FE53BB8076
:101E50004823FB713B1D1D481946FEF72FFF4FF627
:101E6000FF03BB804823FB713B1D19481946FEF751
:101E700025FF4FF44043BB804823FB713B1D1548B1
:101E80001946FEF71BFF4FF4C053BB801023FB71B4
:101E90000323BB713B1D0F481946FEF70FFF0D488A
:101EA0004FF4C051FEF7EEFF43F6FC73BB804823AE
:101EB000FB713B1D08481946FEF700FF0837BD4679
:101EC00080BD00BF00080140000C0140001001402F
:101ED00000140140001801400020014080B582B08C
:101EE00000AF214B00221A60204BFF221A60204BCA
:101EF00000221A703220FEF775F90023FB7115E0FD
:101F00001C484FF40071FEF795FF0346002B05D1E6
:101F1000174B1B780133DAB2154B1A706420FEF7A9
:101F20002DF9FFF769F8FB790133FB71FB791D2B64
:101F3000E6D90F4B1B781D2B05D90F4B01221A70C8
:101F4000FFF75AF80DE00C4B1B78002B09D109481C
:101F50004FF40071FEF76EFF0346012B01D1FFF72E
:101F60004BF80837BD4680BDB0012342AC01234287
:101F7000F2080020001801407008002080B582B0EF
:101F800000AF214BFF221A60204B00221A60204B29
:101F900000221A703220FEF725F90023FB7115E0AC
:101FA0001C484FF40071FEF745FF0346002B05D196
:101FB000174B1B780133DAB2154B1A706420FEF709
:101FC000DDF8FFF719F8FB790133FB71FB79092B79
:101FD000E6D90F4B1B78092B05D90F4B01221A703C
:101FE000FFF70AF80DE00C4B1B78002B09D10948CC
:101FF0004FF40071FEF71EFF0346012B01D1FEF7DF
:10200000FBFF0837BD4680BDB0012342AC0123422F
:10201000C4080020001801407108002080B582B07B
:1020200000AF1E4B00221A703220FEF7A7F80023E3
:10203000FB7115E01A484FF40051FEF7FBFE034612
:10204000002B05D1154B1B780133DAB2134B1A70F4
:102050006420FEF793F8FEF7CFFFFB790133FB71A5
:10206000FB79092BE6D90D4B1B78092B05D90D4BB4
:1020700001221A70FEF7C0FF0DE00A4B1B78002BFF
:1020800009D107484FF40051FEF7D4FE0346012B57
:1020900001D1FEF7B1FF0837BD4680BDC50800205D
:1020A000001801407208002080B500AFFFF716FF4E
:1020B000FFF764FFFFF7B2FF274B1B78002B07D118
:1020C000264B1B78002B03D1254B1B78002B37D0D8
:1020D000244B00221A60204B1B78002B03D11F4B8E
:1020E0001B78002B1DD0FEF787FF1B4B1B78002BA6
:1020F0000BD01D4B9B6805331B4A92680532127842
:1021000042F00102D2B21A7019E0174B9B680533F6
:10211000154A92680532127842F00202D2B21A7061
:102120000DE0FEF769FF104B9B6805330E4A92687D
:102130000532127842F00402D2B21A700AE009E0C5
:10214000084BFF221A60FEF757FF074B9B680533C9
:1021500000221A7080BD00BF7008002071080020A6
:1021600072080020BC812342B008002080B584B0F2
:1021700000AF0346FB710023BB730023FB730DE02C
:10218000FB79012B02D1BB7B0133BB730120FDF72F
:10219000F5FFFEF731FFFB7B0133FB73FB7B0B2B62
:1021A000EED9BB7B092B03D9FEF726FF012302E002
:1021B000FEF722FF002318461037BD4680BD00BF42
:1021C00080B582B000AF0823FB710023BB71954B33
:1021D0001B68DBB21846FFF7C9FF03461A46924B4D
:1021E0001A70924B1B68DBB21846FFF7BFFF03461D
:1021F0001A468D4B5A708E4B1B68DBB21846FFF7A0
:10220000B5FF03461A46884B9A708A4B1B68DBB2AF
:102210001846FFF7ABFF03461A46834BDA70864B2E
:102220001B68DBB21846FFF7A1FF03461A467E4B38
:102230001A71824B1B68DBB21846FFF797FF034603
:102240001A46794B5A717E4B1B68DBB21846FFF772
:102250008DFF03461A46744B9A717A4B1B68DBB2AA
:102260001846FFF783FF03461A466F4BDA71764B29
:102270001B68DBB21846FFF779FF03461A466A4B24
:102280001A72724B1B68DBB21846FFF76FFF0346EA
:102290001A46654B5A726E4B1B68DBB21846FFF745
:1022A00065FF03461A46604B9A726A4B1B68DBB2A5
:1022B0001846FFF75BFF03461A465B4BDA72664B24
:1022C0001B68DBB21846FFF751FF03461A46564B10
:1022D0001A73624B1B68DBB21846FFF747FF0346D1
:1022E0001A46514B5A735E4B1B68DBB21846FFF718
:1022F0003DFF03461A464C4B9A735A4B1B68DBB2A0
:102300001846FFF733FF03461A46474BDA73564B1E
:102310001B68DBB21846FFF729FF03461A46424BFB
:102320001A74524B1B68DBB21846FFF71FFF0346B7
:102330001A463D4B5A744E4B1B68DBB21846FFF7EA
:1023400015FF03461A46384B9A744A4B1B68DBB29A
:102350001846FFF70BFF03461A46334BDA74464B19
:102360001B68DBB21846FFF701FF03461A462E4BE7
:102370001A75424B1B68DBB21846FFF7F7FE03469F
:102380001A46294B5A753E4B1B68DBB21846FFF7BD
:10239000EDFE03461A46244B9A753A4B1B68DBB296
:1023A0001846FFF7E3FE03461A461F4BDA75364B15
:1023B0001B68DBB21846FFF7D9FE03461A461A4BD4
:1023C0001A76324B1B68DBB21846FFF7CFFE034686
:1023D0001A46154B5A762E4B1B68DBB21846FFF790
:1023E000C5FE03461A46104B9A762A4B1B68DBB291
:1023F0001846FFF7BBFE03461A460B4BDA76264B10
:102400001B68DBB21846FFF7B1FE03461A46064BBF
:102410001A77224B1B68DBB21846FFF7A7FE03466C
:102420001A463DE020012142C80800202C0121422B
:102430003001214234012142380121423C01214234
:10244000288121422C812142180122421C01224272
:102450002001224224012242280122422C01224250
:10246000300122420081224204812242088122421C
:102470000C81224210812242148122421881224280
:102480001C8122422C81224230812242348122420C
:10249000388122423C812242380123423C012342BE
:1024A000904B5A77904B1B68DBB21846FFF75EFEE5
:1024B00003461A468B4B9A778C4B1B68DBB2184647
:1024C000FFF754FE03461A46864BDA77884B1B68A3
:1024D000DBB21846FFF74AFE03461A46814B83F8E3
:1024E0002020844B1B68DBB21846FFF73FFE0346F3
:1024F0001A467C4B83F821207F4B1B68DBB21846C1
:10250000FFF734FE03461A46764B83F822207B4BB6
:102510001B68DBB21846FFF729FE03461A46714BCB
:1025200083F82320764B1B68DBB21846FFF71EFEAC
:1025300003461A466B4B83F82420724B1B68DBB2B0
:102540001846FFF713FE03461A46664B83F825200C
:102550006D4B1B68DBB21846FFF708FE03461A46B0
:10256000604B83F82620694B1B68DBB21846FFF7E7
:10257000FDFD03461A465B4B83F82720644B1B681E
:10258000DBB21846FFF7F2FD03461A46554B83F8B7
:102590002820604B1B68DBB21846FFF7E7FD0346B7
:1025A0001A46504B83F829200823FB7134E0FB794D
:1025B000013BBB71BB794B4AD35C012B11D1564B0C
:1025C0009B680633544A926806321278D1B2BA79BF
:1025D000012000FA02F2D2B20A43D2B2D2B21A7089
:1025E00017E0BB793F4AD35C002B12D14A4B9B6862
:1025F0000633494A926806321278D1B2BA7901207C
:1026000000FA02F2D2B2D243D2B20A40D2B2D2B26D
:102610001A70FB79013BFB71FB79002BC7D10823B2
:10262000FB710023BB710823FB7136E0FB79013B92
:10263000BB71BB7908332B4AD35C012B11D1364BCC
:102640009B680733344A926807321278D1B2BA795C
:10265000012000FA02F2D2B20A43D2B2D2B21A7008
:1026600018E0BB7908331F4AD35C002B12D12A4BE8
:102670009B680733284A926807321278D1B2BA7938
:10268000012000FA02F2D2B2D243D2B20A40D2B250
:10269000D2B21A70FB79013BFB71FB79002BC5D1DB
:1026A0000823FB710023BB710823FB7152E0FB7907
:1026B000013BBB71BB7910330A4AD35C012B2DD18E
:1026C000154B9B680833144A926808321278D1B2CD
:1026D000BA79012000FA02F2D2B20A43D2B2D2B2DF
:1026E0001A7034E0C8080020080124420C0124427A
:1026F0001001244214012442180124421C012442E6
:102700002001244224012442280124422C01244295
:102710003001244234012442B0080020BB79103338
:10272000724AD35C002B12D1714B9B680833704AFC
:10273000926808321278D1B2BA79012000FA02F216
:10274000D2B2D243D2B20A40D2B2D2B21A70FB791C
:10275000013BFB71FB79002BA9D10823FB710023FE
:10276000BB710823FB7136E0FB79013BBB71BB7980
:1027700018335E4AD35C012B11D15D4B9B68093342
:102780005B4A926809321278D1B2BA79012000FA14
:1027900002F2D2B20A43D2B2D2B21A7018E0BB79B6
:1027A0001833524AD35C002B12D1514B9B6809332A
:1027B0004F4A926809321278D1B2BA79012000FAF0
:1027C00002F2D2B2D243D2B20A40D2B2D2B21A701C
:1027D000FB79013BFB71FB79002BC5D10823FB7111
:1027E0000023BB710823FB7136E0FB79013BBB7111
:1027F000BB7920333D4AD35C012B11D13C4B9B6804
:102800000A333B4A92680A321278D1B2BA7901206F
:1028100000FA02F2D2B20A43D2B2D2B21A7018E06F
:10282000BB792033314AD35C002B12D1304B9B68EB
:102830000A332F4A92680A321278D1B2BA7901204B
:1028400000FA02F2D2B2D243D2B20A40D2B2D2B22B
:102850001A70FB79013BFB71FB79002BC5D1082372
:10286000FB710023BB710823FB7136E0FB79013B50
:10287000BB71BB7928331D4AD35C012B11D11C4B92
:102880009B680B331A4A92680B321278D1B2BA792C
:10289000012000FA02F2D2B20A43D2B2D2B21A70C6
:1028A00018E0BB792833114AD35C002B12D1104BAE
:1028B0009B680B330E4A92680B321278D1B2BA7908
:1028C000012000FA02F2D2B2D243D2B20A40D2B20E
:1028D000D2B21A70FB79013BFB71FB79002BC5D199
:1028E0000823FB710837BD4680BD00BFC808002023
:1028F000B008002080B582B000AF0823FB71002330
:10290000BB71954B1B68DBB21846FFF72FFC0346E3
:102910001A46924B1A70924B1B68DBB21846FFF7AF
:1029200025FC03461A468D4B5A708E4B1B68DBB252
:102930001846FFF71BFC03461A46884B9A708A4BD1
:102940001B68DBB21846FFF711FC03461A46834B9F
:10295000DA70864B1B68DBB21846FFF707FC0346AC
:102960001A467E4B1A71824B1B68DBB21846FFF782
:10297000FDFB03461A46794B5A717E4B1B68DBB24E
:102980001846FFF7F3FB03461A46744B9A717A4BCD
:102990001B68DBB21846FFF7E9FB03461A466F4B8C
:1029A000DA71764B1B68DBB21846FFF7DFFB034694
:1029B0001A466A4B1A72724B1B68DBB21846FFF755
:1029C000D5FB03461A46654B5A726E4B1B68DBB249
:1029D0001846FFF7CBFB03461A46604B9A726A4BC8
:1029E0001B68DBB21846FFF7C1FB03461A465B4B78
:1029F000DA72664B1B68DBB21846FFF7B7FB03467B
:102A00001A46564B1A73624B1B68DBB21846FFF727
:102A1000ADFB03461A46514B5A735E4B1B68DBB243
:102A20001846FFF7A3FB03461A464C4B9A735A4BC2
:102A30001B68DBB21846FFF799FB03461A46474B63
:102A4000DA73564B1B68DBB21846FFF78FFB034661
:102A50001A46424B1A74524B1B68DBB21846FFF7FA
:102A600085FB03461A463D4B5A744E4B1B68DBB23E
:102A70001846FFF77BFB03461A46384B9A744A4BBD
:102A80001B68DBB21846FFF771FB03461A46334B4F
:102A9000DA74464B1B68DBB21846FFF767FB034648
:102AA0001A462E4B1A75424B1B68DBB21846FFF7CD
:102AB0005DFB03461A46294B5A753E4B1B68DBB239
:102AC0001846FFF753FB03461A46244B9A753A4BB8
:102AD0001B68DBB21846FFF749FB03461A461F4B3B
:102AE000DA75364B1B68DBB21846FFF73FFB03462F
:102AF0001A461A4B1A76324B1B68DBB21846FFF7A0
:102B000035FB03461A46154B5A762E4B1B68DBB233
:102B10001846FFF72BFB03461A46104B9A762A4BB2
:102B20001B68DBB21846FFF721FB03461A460B4B26
:102B3000DA76264B1B68DBB21846FFF717FB034615
:102B40001A46064B1A77224B1B68DBB21846FFF772
:102B50000DFB03461A463DE02C812242C8080020A6
:102B6000308122423C812242080124421401244245
:102B700018012442180122421C0122422001214254
:102B80002C012142288121422C8121423481224280
:102B9000388122420C012442100124421C012442AB
:102BA00020012442200122422401224238012142F4
:102BB0003C01214230012242008122420C8122420A
:102BC000108122421C8122422401244230012442ED
:102BD00034012442904B5A77904B1B68DBB2184665
:102BE000FFF7C4FA03461A468B4B9A778C4B1B6847
:102BF000DBB21846FFF7BAFA03461A46864BDA7775
:102C0000884B1B68DBB21846FFF7B0FA03461A463A
:102C1000814B83F82020844B1B68DBB21846FFF7FA
:102C2000A5FA03461A467C4B83F821207F4B1B688C
:102C3000DBB21846FFF79AFA03461A46764B83F83A
:102C400022207B4B1B68DBB21846FFF78FFA034646
:102C50001A46714B83F82320764B1B68DBB218466B
:102C6000FFF784FA03461A466B4B83F82420724B15
:102C70001B68DBB21846FFF779FA03461A46664B23
:102C800083F825206D4B1B68DBB21846FFF76EFA00
:102C900003461A46604B83F82620694B1B68DBB25B
:102CA0001846FFF763FA03461A465B4B83F8272062
:102CB000644B1B68DBB21846FFF758FA03461A4606
:102CC000554B83F82E20604B1B68DBB21846FFF78C
:102CD0004DFA03461A46504B83F82F200823FB7108
:102CE00034E0FB79013BBB71BB794B4AD35C012BD0
:102CF00011D1564B9B680633544A926806321278BB
:102D0000D1B2BA79012000FA02F2D2B20A43D2B2A9
:102D1000D2B21A7017E0BB793F4AD35C002B12D1B4
:102D20004A4B9B680633494A926806321278D1B200
:102D3000BA79012000FA02F2D2B2D243D2B20A40EA
:102D4000D2B2D2B21A70FB79013BFB71FB79002B36
:102D5000C7D10823FB710023BB710823FB7136E048
:102D6000FB79013BBB71BB7908332B4AD35C012B48
:102D700011D1364B9B680733344A92680732127878
:102D8000D1B2BA79012000FA02F2D2B20A43D2B229
:102D9000D2B21A7018E0BB7908331F4AD35C002BFB
:102DA00012D12A4B9B680733284A9268073212785F
:102DB000D1B2BA79012000FA02F2D2B2D243D2B231
:102DC0000A40D2B2D2B21A70FB79013BFB71FB7997
:102DD000002BC5D10823FB710023BB710823FB71B5
:102DE00052E0FB79013BBB71BB7910330A4AD35CDB
:102DF000012B2DD1154B9B680833144A9268083279
:102E00001278D1B2BA79012000FA02F2D2B20A43A2
:102E1000D2B2D2B21A7034E0C80800203001214288
:102E200034012142280122422C0122420481224203
:102E30000881224214812242188122422801244220
:102E40002C012442380123423C012342B0080020D7
:102E5000BB791033724AD35C002B12D1714B9B6843
:102E60000833704A926808321278D1B2BA790120D8
:102E700000FA02F2D2B2D243D2B20A40D2B2D2B2F5
:102E80001A70FB79013BFB71FB79002BA9D1082358
:102E9000FB710023BB710823FB7136E0FB79013B1A
:102EA000BB71BB7918335E4AD35C012B11D15D4BEA
:102EB0009B6809335B4A926809321278D1B2BA79B9
:102EC000012000FA02F2D2B20A43D2B2D2B21A7090
:102ED00018E0BB791833524AD35C002B12D1514B06
:102EE0009B6809334F4A926809321278D1B2BA7995
:102EF000012000FA02F2D2B2D243D2B20A40D2B2D8
:102F0000D2B21A70FB79013BFB71FB79002BC5D162
:102F10000823FB710023BB710823FB7136E0FB79AA
:102F2000013BBB71BB7920333D4AD35C012B11D1EE
:102F30003C4B9B680A333B4A92680A321278D1B202
:102F4000BA79012000FA02F2D2B20A43D2B2D2B266
:102F50001A7018E0BB792033314AD35C002B12D1B0
:102F6000304B9B680A332F4A92680A321278D1B2EA
:102F7000BA79012000FA02F2D2B2D243D2B20A40A8
:102F8000D2B2D2B21A70FB79013BFB71FB79002BF4
:102F9000C5D10823FB710023BB710823FB7136E008
:102FA000FB79013BBB71BB7928331D4AD35C012BF4
:102FB00011D11C4B9B680B331A4A92680B32127862
:102FC000D1B2BA79012000FA02F2D2B20A43D2B2E7
:102FD000D2B21A7018E0BB792833114AD35C002BA7
:102FE00012D1104B9B680B330E4A92680B32127849
:102FF000D1B2BA79012000FA02F2D2B2D243D2B2EF
:103000000A40D2B2D2B21A70FB79013BFB71FB7954
:10301000002BC5D10823FB710837BD4680BD00BF1A
:10302000C8080020B008002080B483B000AF00239F
:10303000FB7106E0FB790E4A0021D154FB79013384
:10304000FB71FB792C2BF5D90023FB710023FB715D
:1030500006E0FB79074A0021D154FB790133FB716B
:10306000FB79092BF5D90C37BD465DF8047B704719
:1030700000090020F408002080B582B000AF0420D1
:103080000121FEF701FB08200121FEF7FDFA1020C7
:103090000121FEF7F9FA40200121FEF7F5FA802020
:1030A0000121FEF7F1FA4FF480700121FEF7ECFAEE
:1030B000E323BB801023FB710323BB713B1D2F480F
:1030C0001946FDF7FBFD2D48E321FDF7CDFE40F24B
:1030D0000333BB801023FB710323BB713B1D2848C6
:1030E0001946FDF7EBFD264840F20331FDF7BCFE23
:1030F0004EF23F03BB801023FB710323BB713B1DCA
:1031000020481946FDF7DAFD1E484EF23F01FDF753
:10311000ABFE40F2FF13BB801023FB710323BB7196
:103120003B1D19481946FDF7C9FD174840F2FF112C
:10313000FDF79AFE4FF6FF73BB801023FB7103234C
:10314000BB713B1D11481946FDF7B8FD0F484FF6FE
:10315000FF71FDF789FE0323BB801023FB7103235E
:10316000BB713B1D0A481946FDF7A8FD084803211D
:10317000FDF77AFE0837BD4680BD00BF000801405C
:10318000000C01400010014000180140001C0140EB
:103190000020014080B483B000AF0346FB71FB798F
:1031A0002C2B00F2118101A252F823F061320008A9
:1031B0006932000871320008793200088132000853
:1031C000893200089132000899320008A1320008C3
:1031D000A9320008B1320008B9320008C132000833
:1031E000C9320008D1320008D9320008E1320008A3
:1031F000E9320008F1320008F93200080133000812
:10320000093300081133000819330008213300087E
:1032100029330008313300083933000841330008EE
:10322000493300085133000859330008613300085E
:1032300069330008713300087933000881330008CE
:10324000893300089133000899330008A13300083E
:10325000A9330008B1330008B9330008C1330008AE
:103260005C4B00221A60B0E05B4B00221A60ACE0BD
:103270005A4B00221A60A8E0594B00221A60A4E0C1
:10328000584B00221A60A0E0574B00221A609CE0C5
:10329000564B00221A6098E0554B00221A6094E0C9
:1032A000544B00221A6090E0534B00221A608CE0CD
:1032B000524B00221A6088E0514B00221A6084E0D1
:1032C000504B00221A6080E04F4B00221A607CE0D5
:1032D0004E4B00221A6078E04D4B00221A6074E0D9
:1032E0004C4B00221A6070E04B4B00221A606CE0DD
:1032F0004A4B00221A6068E0494B00221A6064E0E1
:10330000484B00221A6060E0474B00221A605CE0E4
:10331000464B00221A6058E0454B00221A6054E0E8
:10332000444B00221A6050E0434B00221A604CE0EC
:10333000424B00221A6048E0414B00221A6044E0F0
:10334000404B00221A6040E03F4B00221A603CE0F4
:103350003E4B00221A6038E03D4B00221A6034E0F8
:103360003C4B00221A6030E03B4B00221A602CE0FC
:103370003A4B00221A6028E0394B00221A6024E000
:10338000384B00221A6020E0374B00221A601CE004
:10339000364B00221A6018E0354B00221A6014E008
:1033A000344B00221A6010E0334B00221A600CE00C
:1033B000324B00221A6008E0314B00221A6004E010
:1033C000304B00221A6000E000BF0C37BD465DF8AC
:1033D000047B7047800121428401214294012142F3
:1033E000980121429C012142808121428481214215
:1033F000A0812142A48121428001224284012242F3
:10340000880122428C0122429001224294012242F0
:10341000B4012242B8012242BC012242800123426F
:1034200084012342880123428C01234290012342DC
:1034300094012342980123429C012342A00123428C
:103440008081234284812342888123428C812342CC
:103450009081234294812342988123429C8123427C
:10346000A4812342A0812342A8812342AC8123422C
:10347000B0812342B4812342B8812342BC812342DC
:10348000800124428401244280B483B000AF03460B
:10349000FB71FB792C2B00F2118101A252F823F071
:1034A000553500085D350008653500086D350008A4
:1034B000753500087D350008853500088D35000814
:1034C000953500089D350008A5350008AD35000884
:1034D000B5350008BD350008C5350008CD350008F4
:1034E000D5350008DD350008E5350008ED35000864
:1034F000F5350008FD350008053600080D360008D2
:10350000153600081D360008253600082D3600083F
:10351000353600083D360008453600084D360008AF
:10352000553600085D360008653600086D3600081F
:10353000753600087D360008853600088D3600088F
:10354000953600089D360008A5360008AD360008FF
:10355000B53600085C4B01221A60B0E05B4B0122DB
:103560001A60ACE05A4B01221A60A8E0594B0122C4
:103570001A60A4E0584B01221A60A0E0574B0122C8
:103580001A609CE0564B01221A6098E0554B0122CC
:103590001A6094E0544B01221A6090E0534B0122D0
:1035A0001A608CE0524B01221A6088E0514B0122D4
:1035B0001A6084E0504B01221A6080E04F4B0122D8
:1035C0001A607CE04E4B01221A6078E04D4B0122DC
:1035D0001A6074E04C4B01221A6070E04B4B0122E0
:1035E0001A606CE04A4B01221A6068E0494B0122E4
:1035F0001A6064E0484B01221A6060E0474B0122E8
:103600001A605CE0464B01221A6058E0454B0122EB
:103610001A6054E0444B01221A6050E0434B0122EF
:103620001A604CE0424B01221A6048E0414B0122F3
:103630001A6044E0404B01221A6040E03F4B0122F7
:103640001A603CE03E4B01221A6038E03D4B0122FB
:103650001A6034E03C4B01221A6030E03B4B0122FF
:103660001A602CE03A4B01221A6028E0394B012203
:103670001A6024E0384B01221A6020E0374B012207
:103680001A601CE0364B01221A6018E0354B01220B
:103690001A6014E0344B01221A6010E0334B01220F
:1036A0001A600CE0324B01221A6008E0314B012213
:1036B0001A6004E0304B01221A6000E000BF0C37B2
:1036C000BD465DF8047B70478001214284012142A0
:1036D00094012142980121429C0121428081214292
:1036E00084812142A0812142A48121428001224281
:1036F00084012242880122428C012242900122420E
:1037000094012242B4012242B8012242BC01224269
:103710008001234284012342880123428C012342F9
:103720009001234294012342980123429C012342A9
:10373000A001234280812342848123428881234245
:103740008C81234290812342948123429881234299
:103750009C812342A4812342A0812342A881234249
:10376000AC812342B0812342B4812342B8812342F9
:10377000BC812342800124428401244280B582B06E
:1037800000AF0346FB71052001F0BCFC03461A465E
:103790001F4B9A601E4B9B68002B06D01C4B9B68EE
:1037A00018460021052201F059FF194B9B68AA22F7
:1037B0001A70174B9B68013355221A70144B9B6883
:1037C000023303221A70124B9B680333A9221A702A
:1037D0000F4B9B6804330E4A12681278D1B2FA7903
:1037E0000A43D2B21A700A4B1B69094A9168084A07
:1037F0009268023212780232D2B2084611469847D5
:10380000034B9B68184601F085FC0837BD4680BD18
:10381000B008002080B582B000AF00237B80002379
:103820003B800023BB710023FB7100237B710023CD
:103830007B7113E07B79664AD1687A790A44117802
:10384000644AD154624BDA687B7913441B781A4678
:103850007B8813447B807B7901337B717B79092BD7
:10386000E8D9FDF7C9FB5A4BDA687B7913441B781A
:103870001B029AB2564BD9687B7901330B441B78F3
:1038800013443B807A883B889A4240F09A80F0202B
:10389000FFF774FF0023FB7155E0FB794D4A127866
:1038A0001146FA7941FA02F2D2B202F00102D1B223
:1038B000494AD154FB790833464A52781146FA797D
:1038C00041FA02F2D2B202F00102D1B2424AD1541C
:1038D000FB7910333F4A92781146FA7941FA02F2A5
:1038E000D2B202F00102D1B23B4AD154FB79183373
:1038F000384AD2781146FA7941FA02F2D2B202F08D
:103900000102D1B2344AD154FB792033314A1279C1
:103910001146FA7941FA02F2D2B202F00102D1B2B2
:103920002D4AD154FB7928332A4A52791146FA7923
:1039300041FA02F2D2B202F00102D1B2264AD154C7
:10394000FB790133FB71FB79072BA6D90023BB71EF
:1039500019E0BB79204AD35C012B06D1BB7918460C
:10396000FFF718FCFDF748FB0AE0BB791A4AD35C65
:10397000002B05D1BB791846FFF786FDFDF73CFB10
:10398000BB790133BB71BB792C2BE2D9114B9B79ED
:10399000DB43DAB20F4BDB79DB43DBB2422011466B
:1039A0001A46FEF769F80B4B1B7ADB43DAB2094B78
:1039B0005B7ADB43DBB2402011461A46FEF75CF827
:1039C00002E08020FFF7DAFE0837BD4680BD00BF69
:1039D000B0080020F40800200009002080B483B063
:1039E00000AF0346FB71FB792C2B00F2118101A281
:1039F00052F823F0A93A0008B13A0008B93A000891
:103A0000C13A0008C93A0008D13A0008D93A00087A
:103A1000E13A0008E93A0008F13A0008F93A0008EA
:103A2000013B0008093B0008113B0008193B000856
:103A3000213B0008293B0008313B0008393B0008C6
:103A4000413B0008493B0008513B0008593B000836
:103A5000613B0008693B0008713B0008793B0008A6
:103A6000813B0008893B0008913B0008993B000816
:103A7000A13B0008A93B0008B13B0008B93B000886
:103A8000C13B0008C93B0008D13B0008D93B0008F6
:103A9000E13B0008E93B0008F13B0008F93B000866
:103AA000013C0008093C00085C4B00221A60B0E0B1
:103AB0005B4B00221A60ACE05A4B00221A60A8E06F
:103AC000594B00221A60A4E0584B00221A60A0E073
:103AD000574B00221A609CE0564B00221A6098E077
:103AE000554B00221A6094E0544B00221A6090E07B
:103AF000534B00221A608CE0524B00221A6088E07F
:103B0000514B00221A6084E0504B00221A6080E082
:103B10004F4B00221A607CE04E4B00221A6078E086
:103B20004D4B00221A6074E04C4B00221A6070E08A
:103B30004B4B00221A606CE04A4B00221A6068E08E
:103B4000494B00221A6064E0484B00221A6060E092
:103B5000474B00221A605CE0464B00221A6058E096
:103B6000454B00221A6054E0444B00221A6050E09A
:103B7000434B00221A604CE0424B00221A6048E09E
:103B8000414B00221A6044E0404B00221A6040E0A2
:103B90003F4B00221A603CE03E4B00221A6038E0A6
:103BA0003D4B00221A6034E03C4B00221A6030E0AA
:103BB0003B4B00221A602CE03A4B00221A6028E0AE
:103BC000394B00221A6024E0384B00221A6020E0B2
:103BD000374B00221A601CE0364B00221A6018E0B6
:103BE000354B00221A6014E0344B00221A6010E0BA
:103BF000334B00221A600CE0324B00221A6008E0BE
:103C0000314B00221A6004E0304B00221A6000E0C1
:103C100000BF0C37BD465DF8047B7047A081214290
:103C2000A48121428001234284012342880123424E
:103C30008C012342900123429401234298012342A4
:103C4000B4012242B8012242BC01224288812342AF
:103C50008C812342988123429C812342A881234264
:103C6000800122428C012242800121428081234234
:103C7000848123429081234294812342A081234264
:103C8000A4812342840122428801224284012142EC
:103C9000940121429001224294012242AC812342AC
:103CA000B0812342B4812342B8812342800124425F
:103CB000840124429C012342A00123429801214215
:103CC0009C0121428081214284812142BC81234286
:103CD00080B483B000AF0346FB71FB792C2B00F25C
:103CE000118101A252F823F09D3D0008A53D000876
:103CF000AD3D0008B53D0008BD3D0008C53D0008CC
:103D0000CD3D0008D53D0008DD3D0008E53D00083B
:103D1000ED3D0008F53D0008FD3D0008053E0008AA
:103D20000D3E0008153E00081D3E0008253E000817
:103D30002D3E0008353E00083D3E0008453E000887
:103D40004D3E0008553E00085D3E0008653E0008F7
:103D50006D3E0008753E00087D3E0008853E000867
:103D60008D3E0008953E00089D3E0008A53E0008D7
:103D7000AD3E0008B53E0008BD3E0008C53E000847
:103D8000CD3E0008D53E0008DD3E0008E53E0008B7
:103D9000ED3E0008F53E0008FD3E00085C4B0122A8
:103DA0001A60B0E05B4B01221A60ACE05A4B012272
:103DB0001A60A8E0594B01221A60A4E0584B012276
:103DC0001A60A0E0574B01221A609CE0564B01227A
:103DD0001A6098E0554B01221A6094E0544B01227E
:103DE0001A6090E0534B01221A608CE0524B012282
:103DF0001A6088E0514B01221A6084E0504B012286
:103E00001A6080E04F4B01221A607CE04E4B012289
:103E10001A6078E04D4B01221A6074E04C4B01228D
:103E20001A6070E04B4B01221A606CE04A4B012291
:103E30001A6068E0494B01221A6064E0484B012295
:103E40001A6060E0474B01221A605CE0464B012299
:103E50001A6058E0454B01221A6054E0444B01229D
:103E60001A6050E0434B01221A604CE0424B0122A1
:103E70001A6048E0414B01221A6044E0404B0122A5
:103E80001A6040E03F4B01221A603CE03E4B0122A9
:103E90001A6038E03D4B01221A6034E03C4B0122AD
:103EA0001A6030E03B4B01221A602CE03A4B0122B1
:103EB0001A6028E0394B01221A6024E0384B0122B5
:103EC0001A6020E0374B01221A601CE0364B0122B9
:103ED0001A6018E0354B01221A6014E0344B0122BD
:103EE0001A6010E0334B01221A600CE0324B0122C1
:103EF0001A6008E0314B01221A6004E0304B0122C5
:103F00001A6000E000BF0C37BD465DF8047B7047C7
:103F1000A0812142A48121428001234284012342C5
:103F2000880123428C0123429001234294012342C1
:103F300098012342B4012242B8012242BC0122422C
:103F4000888123428C812342988123429C81234291
:103F5000A8812342800122428C0122428001214219
:103F60008081234284812342908123429481234291
:103F7000A0812342A481234284012242880122425B
:103F80008401214294012142900122429401224263
:103F9000AC812342B0812342B4812342B8812342C1
:103FA00080012442840124429C012342A001234237
:103FB000980121429C012142808121428481214239
:103FC000BC81234280B584B000AFA64BDB681B7870
:103FD000FB72A44BDB6801331B78BB72A14BDB681F
:103FE00002331B787B720023FB800023FB810023BC
:103FF000BB810023BB800023BB810BE0994BDA68B7
:10400000BB8913441B781A46FB891344FB81BB8987
:104010000133BB81BB89022BF0D9FCF7EDFF914B3B
:10402000DA68BB8913441B781B029AB28D4BD9689E
:10403000BB8901330B441B781344BB80BA88FB89CE
:104040009A4240F01381FB7A022B40F20581FB7A01
:10405000062B00F20181BB7A002B00F0F880BB7ABE
:10406000142B00F2F480FB7A033B9BB21A469200B9
:1040700013449B009AB2BB7A9BB21344FB80FCF7BB
:10408000BBFFFB881E2B19D97B7A002B09D0FB883C
:10409000DBB21F3BDBB21846FFF7A0FCFCF7ACFF1E
:1040A00008E0FB88DBB21F3BDBB21846FFF710FECF
:1040B000FCF7A2FFF020FFF761FBCCE0FB88013B9F
:1040C000FB80FB88DB087B80FB8803F007033B80D9
:1040D000FCF792FF7B88032B00F2988001A252F834
:1040E00023F000BFF5400008374100088141000877
:1040F000C34100087B7A002B0DD05B4B1B78DAB2F2
:104100003B88012101FA03F3DBB21343DBB2DAB2DD
:10411000554B1A707BE0544B1B78DAB23B88012177
:1041200001FA03F3DBB2DB43DBB21340DBB2DAB2FA
:104130004D4B1A706BE07B7A002B0FD04A4B5B78AB
:10414000DAB23B88C3F10703012101FA03F3DBB2C2
:104150001343DBB2DAB2444B5A7058E0424B5B78FF
:10416000DAB23B88C3F10703012101FA03F3DBB2A2
:10417000DB43DBB21340DBB2DAB23B4B5A7046E0B2
:104180007B7A002B0DD0384B9B78DAB23B8801212B
:1041900001FA03F3DBB21343DBB2DAB2324B9A70AB
:1041A00035E0314B9B78DAB23B88012101FA03F309
:1041B000DBB2DB43DBB21340DBB2DAB22A4B9A70DC
:1041C00025E07B7A002B0FD0274BDB78DAB23B88D7
:1041D000C3F10703012101FA03F3DBB21343DBB29E
:1041E000DAB2214BDA7012E01F4BDB78DAB23B888F
:1041F000C3F10703012101FA03F3DBB2DB43DBB2B6
:104200001340DBB2DAB2184BDA7000E000BF164B95
:104210001B78DB43DAB2144B5B78DB43DBB2422022
:1042200011461A46FDF728FC0F4B9B78DB43DAB2A8
:104230000D4BDB78DB43DBB2402011461A46FDF71D
:104240001BFCF020FFF79AFAFCF7D6FE03E0802073
:10425000FFF794FA04E003E08020FFF78FFA08E00C
:1042600007E000BFB0080020300900208020FFF7E1
:1042700085FA1037BD4680BD80B485B000AF786048
:104280000B4B1B68002B02D1094B0A4A1A60084BE2
:104290001B68FB60064B1A687B681A44044B1A6063
:1042A000FB6818461437BD465DF8047B704700BFB5
:1042B00074080020C009002080B584B000AF082039
:1042C0000121FDF7E1F94FF40043BB814823FB7363
:1042D00007F10C0313481946FCF7F0FC01200121FB
:1042E000FDF7D2F901200F21FCF7DAFD4FF400436E
:1042F0007B6000233B7208237B720123BB723B1D52
:104300001846FDF7FDF928233B7001237B7002233B
:10431000BB700123FB703B46184600F02FF81037A6
:10432000BD4680BD000C014080B582B000AF4FF4A7
:104330000040FDF753FA03467B607B68002B02D0F8
:10434000044B01221A704FF40040FDF76BFA083756
:10435000BD4680BD7808002080B483B000AF78608F
:10436000054A7B6843F0BF6343F40033D3600C37E6
:10437000BD465DF8047B704700ED00E080B487B077
:1043800000AF786000237B6100233B610F23FB605B
:104390007B68DB78002B38D0264BDB68DB4303F4EB
:1043A000E0631B0A7B617B69C3F104033B617B69AA
:1043B000FA6822FA03F3FB607B685B781A463B6974
:1043C00002FA03F37B617B689B781A46FB68134013
:1043D0007A6913437B617B691B017B6116497B68AA
:1043E0001B787A69D2B20B4483F80023124B7A68A7
:1043F00012785209D2B27968097801F01F010120C0
:1044000000FA01F143F822100EE00B4B7A681278A3
:104410005209D2B27968097801F01F01012000FA2F
:1044200001F1203243F822101C37BD465DF8047BB1
:10443000704700BF00ED00E000E100E080B483B011
:1044400000AF78607B68042B06D1094B084A1268DC
:1044500042F004021A6005E0054B054A126822F09A
:1044600004021A600C37BD465DF8047B704700BF3C
:1044700010E000E080B588B000AF78600420012132
:10448000FDF702F94FF400300121FDF71BF9042379
:10449000BB830323BB771823FB7707F11C032B484F
:1044A0001946FCF70BFC0823BB830423FB7707F1B9
:1044B0001C0326481946FCF701FC1023BB8310237C
:1044C000FB7707F11C0321481946FCF7F7FB1F484F
:1044D0001021FCF7C9FC26233B7203237B720323C4
:1044E000BB720123FB7207F108031846FFF746FF72
:1044F0007B68FB6000233B8200237B820023BB821E
:1045000000233B830C23FB8207F10C031048194660
:10451000FDF7E2FA0E4840F225510122FDF7B6FB05
:104520000B480121FDF792FB0A4B00221A70094B40
:1045300000225A70074B0022DA70064B00221A71D3
:10454000044B00229A702037BD4680BD0008014010
:10455000004400403409002080B582B000AF4A48D2
:1045600040F22551FDF7EAFB0346002B00F089805D
:10457000464B03221A704448FDF7D0FB0346FB71FB
:10458000434B1B79DBB2002B7BD1414B5B78DBB219
:104590000133DAB23E4B5A703D4BDB78DBB25A1C2A
:1045A000D1B23B4AD1703A4A1344FA795A71384B26
:1045B0005B78DBB2012B0ED1354B5B79AA2B06D091
:1045C000334B0022DA70324B00225A703EE0314BFE
:1045D00033221A703AE02E4B5B78DBB2022B0ED1FD
:1045E0002B4B9B79552B06D0294B0022DA70284B98
:1045F00000225A702AE0274B33221A7026E0244BFF
:104600005B78DBB2032B16D1214BFA791A70204B61
:104610000022DA701E4B1B78DBB2012B04D91C4B35
:104620001B78DBB2802B11D9194B0022DA70184BA2
:1046300000225A700AE0164B5B78DBB2042B05D1DE
:10464000134BFA799A70124B0022DA70104B5B7898
:10465000DBB2032B15D90E4BDB78DBB21A460C4BC1
:104660001B78DBB2023B9A420BD1094B0022DA7075
:10467000074B00225A70064B01221A71054B00228B
:104680001A700837BD4680BD004400407A080020FB
:10469000340900207908002080B483B000AF0346BD
:1046A000FB710D4B00221A6000BF0C4B1B889BB2A4
:1046B00003F04003002BF8D0094B02221A70074B7D
:1046C000FA7992B29A80044B01221A600C37BD46E7
:1046D0005DF8047B704700BF900121420044004018
:1046E0007B08002080B582B000AF78600A4B0022C2
:1046F0001A6006E07B685A1C7A601B781846FFF740
:10470000CBFF7B681B78002BF4D1034B01221A608E
:104710000837BD4680BD00BF9001214280B485B0FE
:1047200000AF78600B46FB70FB78FB73154B0022E3
:104730001A6013E000BF144B1B889BB203F04003C8
:10474000002BF8D0114B02221A700F4A7B68591CBB
:1047500079601B789380FB7B013BFB73FB7B002B19
:10476000E8D100BF084B1B889BB203F04003002B2D
:10477000F8D0044B01221A601437BD465DF8047B63
:10478000704700BF90012142004400407B08002098
:104790000FB480B5C2B000AF0F4B00221A6007F50E
:1047A0008A73C7F804313B1D18464FF48071D7F85F
:1047B0001021D7F80431FCF78BFD3B1D1846FFF79D
:1047C00091FF054B01221A6007F58477BD46BDE8CD
:1047D000804004B0704700BF9001214280B483B094
:1047E00000AF294B1B78FB71FB79012B06D9FB79B4
:1047F000013BFB71244BFA791A700EE0FB79012B17
:104800000BD1224B0022DA70204B00225A701F4B32
:1048100000221A711C4B00221A701D4B1B78BB71B1
:10482000BB79012B09D91B4B00221A60BB79013BD4
:10483000BB71174BBA791A7008E0BB79012B05D10F
:10484000144B01221A60124B00221A70124B1B7873
:104850007B717B79012B09D9104B00221A607B797F
:10486000013B7B710C4B7A791A7008E07B79012B44
:1048700005D10A4B01221A60074B00221A700C372F
:10488000BD465DF8047B704779080020340900209C
:104890007A080020908121427B0800208C812142EF
:1048A00080B483B000AF0346FB80044BFA881A60E3
:1048B0000C37BD465DF8047B704700BF00300040F8
:1048C00080B483B000AF0346FB71044BFA795A60A1
:1048D0000C37BD465DF8047B704700BF00300040D8
:1048E00080B483B000AF0346FB80044BFA889A6023
:1048F0000C37BD465DF8047B704700BF00300040B8
:1049000080B400AF034B4AF6AA221A60BD465DF898
:10491000047B70470030004080B400AF034B4CF67E
:10492000CC421A60BD465DF8047B70470030004001
:1049300081F0004102E000BF83F0004330B54FEA50
:1049400041044FEA430594EA050F08BF90EA020FBD
:104950001FBF54EA000C55EA020C7FEA645C7FEA50
:10496000655C00F0E2804FEA5454D4EB5555B8BF73
:104970006D420CDD2C4480EA020281EA030382EAE4
:10498000000083EA010180EA020281EA0303362D76
:1049900088BF30BD11F0004F4FEA01314FF4801C49
:1049A0004CEA113102D0404261EB410113F0004F5B
:1049B0004FEA03334CEA133302D0524263EB430312
:1049C00094EA050F00F0A780A4F10104D5F1200EB0
:1049D0000DDB02FA0EFC22FA05F2801841F100010B
:1049E00003FA0EF2801843FA05F359410EE0A5F1DF
:1049F00020050EF1200E012A03FA0EFC28BF4CF010
:104A0000020C43FA05F3C01851EBE37101F00045C5
:104A100007D54FF0000EDCF1000C7EEB00006EEBD2
:104A20000101B1F5801F1BD3B1F5001F0CD349085C
:104A30005FEA30004FEA3C0C04F101044FEA4452B3
:104A400012F5800F80F09A80BCF1004F08BF5FEA3A
:104A5000500C50F1000041EB045141EA050130BD1A
:104A60005FEA4C0C404141EB010111F4801FA4F1BD
:104A70000104E9D191F0000F04BF01460020B1FA12
:104A800081F308BF2033A3F10B03B3F120020CDA4A
:104A90000C3208DD02F1140CC2F10C0201FA0CF028
:104AA00021FA02F10CE002F11402D8BFC2F1200C8D
:104AB00001FA02F120FA0CFCDCBF41EA0C01904043
:104AC000E41AA2BF01EB0451294330BD6FEA04048C
:104AD0001F3C1CDA0C340EDC04F11404C4F1200277
:104AE00020FA04F001FA02F340EA030021FA04F389
:104AF00045EA030130BDC4F10C04C4F1200220FAE0
:104B000002F001FA04F340EA0300294630BD21FA1D
:104B100004F0294630BD94F0000F83F4801306BFE3
:104B200081F480110134013D4EE77FEA645C18BFD7
:104B30007FEA655C29D094EA050F08BF90EA020F6E
:104B400005D054EA000C04BF1946104630BD91EA66
:104B5000030F1EBF0021002030BD5FEA545C05D169
:104B60004000494128BF41F0004130BD14F58004A8
:104B70003CBF01F5801130BD01F0004545F0FE411C
:104B800041F470014FF0000030BD7FEA645C1ABF51
:104B9000194610467FEA655C1CBF0B46024650EA88
:104BA000013406BF52EA033591EA030F41F40021B4
:104BB00030BD00BF90F0000F04BF0021704730B53A
:104BC0004FF4806404F132044FF000054FF000010F
:104BD00050E700BF90F0000F04BF0021704730B5D0
:104BE0004FF4806404F1320410F0004548BF4042A5
:104BF0004FF000013EE700BF42004FEAE2014FEAFA
:104C000031014FEA02701FBF12F07F4393F07F4FD4
:104C100081F06051704792F0000F14BF93F07F4F06
:104C2000704730B54FF4607401F0004521F0004149
:104C300020E700BF50EA010208BF704730B54FF0CF
:104C400000050AE050EA010208BF704730B511F0D4
:104C5000004502D5404261EB41014FF4806404F10C
:104C600032045FEA915C3FF4DCAE4FF003025FEA8E
:104C7000DC0C18BF03325FEADC0C18BF033202EB16
:104C8000DC02C2F1200300FA03FC20FA02F001FA70
:104C900003FE40EA0E0021FA02F11444C1E600BF0F
:104CA00070B54FF0FF0C4CF4E06C1CEA11541DBFC2
:104CB0001CEA135594EA0C0F95EA0C0F00F0DEF88D
:104CC0002C4481EA030621EA4C5123EA4C5350EA72
:104CD000013518BF52EA033541F4801143F48013C3
:104CE00038D0A0FB02CE4FF00005E1FB02E506F054
:104CF0000042E0FB03E54FF00006E1FB03569CF0A9
:104D0000000F18BF4EF0010EA4F1FF04B6F5007FAE
:104D100064F5407404D25FEA4E0E6D4146EB060620
:104D200042EAC62141EA55514FEAC52040EA5E50A9
:104D30004FEACE2EB4F1FD0C88BFBCF5E06F1ED853
:104D4000BEF1004F08BF5FEA500E50F1000041EB8A
:104D5000045170BD06F0004646EA010140EA020037
:104D600081EA0301B4EB5C04C2BFD4EB0C0541EA59
:104D7000045170BD41F480114FF0000E013C00F36E
:104D8000AB8014F1360FDEBF002001F0004170BD92
:104D9000C4F10004203C35DA0C341BDC04F11404AB
:104DA000C4F1200500FA05F320FA04F001FA05F237
:104DB00040EA020001F0004221F0004110EBD37004
:104DC00021FA04F642EB06015EEA430E08BF20EA30
:104DD000D37070BDC4F10C04C4F1200500FA04F3D3
:104DE00020FA05F001FA04F240EA020001F0004165
:104DF00010EBD37041F100015EEA430E08BF20EAD8
:104E0000D37070BDC4F1200500FA05F24EEA020E1F
:104E100020FA04F301FA05F243EA020321FA04F04E
:104E200001F0004121FA04F220EA020000EBD37005
:104E30005EEA430E08BF20EAD37070BD94F0000F05
:104E40000FD101F00046400041EB010111F4801F39
:104E500008BF013CF7D041EA060195F0000F18BFEA
:104E6000704703F00046520043EB030313F4801F26
:104E700008BF013DF7D043EA0603704794EA0C0FE0
:104E80000CEA135518BF95EA0C0F0CD050EA4106F6
:104E900018BF52EA4306D1D181EA030101F0004173
:104EA0004FF0000070BD50EA410606BF104619469B
:104EB00052EA430619D094EA0C0F02D150EA0136A7
:104EC00013D195EA0C0F05D152EA03361CBF1046E8
:104ED00019460AD181EA030101F0004141F0FE4187
:104EE00041F470014FF0000070BD41F0FE4141F40B
:104EF000780170BD70B54FF0FF0C4CF4E06C1CEA0B
:104F000011541DBF1CEA135594EA0C0F95EA0C0FBF
:104F100000F0A7F8A4EB050481EA030E52EA03357A
:104F20004FEA013100F088804FEA03334FF080559B
:104F300045EA131343EA12634FEA022245EA1115C8
:104F400045EA10654FEA00260EF000419D4208BF79
:104F5000964244F1FD0404F5407402D25B084FEA26
:104F60003202B61A65EB03055B084FEA32024FF4D2
:104F700080104FF4002CB6EB020E75EB030E22BF2F
:104F8000B61A754640EA0C005B084FEA3202B6EBEF
:104F9000020E75EB030E22BFB61A754640EA5C009E
:104FA0005B084FEA3202B6EB020E75EB030E22BF2E
:104FB000B61A754640EA9C005B084FEA3202B6EB2F
:104FC000020E75EB030E22BFB61A754640EADC00EE
:104FD00055EA060E18D04FEA051545EA16754FEA50
:104FE00006164FEAC30343EA52734FEAC2025FEA6E
:104FF0001C1CC0D111F4801F0BD141EA00014FF0FD
:1050000000004FF0004CB6E711F4801F04BF0143CD
:105010000020B4F1FD0C88BFBCF5E06F3FF6AFAEE9
:10502000B5EB030C04BFB6EB020C5FEA500C50F179
:10503000000041EB045170BD0EF0004E4EEA1131FC
:1050400014EB5C04C2BFD4EB0C0541EA045170BD03
:1050500041F480114FF0000E013C90E645EA060E47
:105060008DE60CEA135594EA0C0F08BF95EA0C0F75
:105070003FF43BAF94EA0C0F0AD150EA01347FF4BD
:1050800034AF95EA0C0F7FF425AF104619462CE794
:1050900095EA0C0F06D152EA03353FF4FDAE1046F7
:1050A000194622E750EA410618BF52EA43067FF448
:1050B000C5AE50EA41047FF40DAF52EA43057FF4D8
:1050C000EBAE12E74A0011D212F5001211D20DD543
:1050D0006FF47873B3EB62520ED44FEAC12343F0FE
:1050E000004343EA505323FA02F070474FF00000A8
:1050F000704750EA013002D14FF0FF3070474FF057
:1051000000007047024B0146186800F00BB800BF62
:1051100040040020024B0146186800F04DBB00BF60
:10512000400400202DE9F04F01F10B05162D83B04E
:10513000064627D935F0070527D4A94225D8304699
:1051400000F0D6FAB5F5FC7F26D2C14F4FEAD50C58
:1051500007EBCC03DC689C4200F0D2816368E26814
:1051600023F0030323445868A16840F00105CA6096
:10517000304691605D6000F0BDFA0834204603B00F
:10518000BDE8F08F1025A942D9D900240C23204670
:10519000336003B0BDE8F08F5FEA552C00F08980E2
:1051A000BCF1040F00F260814FEA951C0CF1380C41
:1051B0004FEA4C01A64F07EB8101CC68A14205D113
:1051C0000CE0002B79DAE468A14207D0626822F093
:1051D0000302531B0F2BF4DD0CF1FF3C0CF1010C0F
:1051E0009B4B3C6903F1080E744500F07E816168B9
:1051F00021F003014A1B0F2A00F36481002AC3F83F
:1052000014E0C3F810E069DAB1F5007F80F03A816C
:10521000C9088A104FF0010808FA02F803EBC1012F
:105220005A68886848EA0202A060E1605A608C60AF
:10523000C4604FEAAC030120984090425BD8024220
:1052400006D12CF0030C400002420CF1040CFAD001
:1052500007EBCC084446E146E3689C4207D146E1AF
:10526000002A80F25781DB689C4200F04081596837
:1052700021F003014A1B0F2AF2DD1C4654F808CF27
:10528000D96845F0010942F001081D44C3F80490B3
:105290003046CCF80C10C1F808C07D613D61C5F8FE
:1052A0000CE0C5F808E0C5F80480AA5000F022FA26
:1052B00064E77E214FF03F0C7CE722445068E368AE
:1052C000A16840F00105CB6030469960556000F060
:1052D00011FA0834204603B0BDE8F08F21444B6832
:1052E000304643F001034B6000F004FA08342046D6
:1052F00003B0BDE8F08FBC68636823F00309A945DB
:1053000004D3C5EB09030F2B00F39180514B524A94
:105310001968136805EB010A013304EB090B00F06F
:1053200061810AF5805A0AF10F0A2AF47F6A2AF08D
:105330000F0A30465146019200F0DEF9B0F1FF3F0E
:105340008046019A00F00181834500F2FB80DFF87E
:1053500014C1C345DCF800305344CCF8003000F0F1
:105360004A8112683C4901321BBFCBEB080B5B44FE
:10537000C1F80080CCF8003018F0070300F0148169
:10538000C3F10802C3F5805390440833C244CAF302
:105390000B0ACAEB030A51463046CDF804C000F0B0
:1053A000ABF9431CDDF804C000F03581C8EB000206
:1053B000524442F00102DCF80030BC425344C7F8CA
:1053C0000880CCF80030C8F80420DFF898A015D089
:1053D000B9F10F0F40F2EB806168A9F10C0222F0E5
:1053E000070201F0010142EA010E0520A1180F2A6F
:1053F000C4F804E04860886000F21181174ABC6874
:1054000011688B4288BF1360154A11688B4288BFB0
:105410001360626822F003029542C5EB020301D8D3
:105420000F2B04DC304600F065F90024A6E645F0B9
:10543000010243F00103254462603046BD606B60A9
:1054400000F058F90834204603B0BDE8F08F00BFE3
:105450005C040020840800206808002080080020E8
:105460007C08002088080020BCF1140F61D9BCF131
:10547000540F00F28F804FEA153C0CF16E0C4FEA8E
:105480004C0197E64B0A042B58D9142B00F2AD803F
:1054900003F15B02500007EB80008368DFF8B881FE
:1054A000834200F08A805A6822F00302914202D2BD
:1054B0009B689842F7D1D9687A68E160A3608C60F4
:1054C000DC60B6E645F0010742F001012544676063
:1054D00030465D611D61C5F80CE0C5F808E0696003
:1054E000AA50083400F006F948E65A68A1E609F126
:1054F000010919F0030F04F108047FF4ADAE2DE0AB
:1055000004F108036469A34208BF0CF1020C3FF4E4
:1055100067AE23E6194448681C4654F8082FDB6838
:1055200040F001054D603046D3609A6000F0E2F82B
:1055300024E60CF15B0C4FEA4C013BE68A09383259
:105540005000A8E7BC423FF402AFBC68626822F09A
:10555000030261E7D8F8008098457AD11CF0030F68
:10556000A8F108030CF1FF3CF4D17B6823EA0003A7
:105570007B60400098423FF6BEAE00283FF4BBAED1
:105580000342CC467FF464AE400003420CF1040CAD
:10559000FAD05DE6BCF5AA7F19D84FEAD53C0CF1EC
:1055A000770C4FEA4C0105E64FF48053EEE60123F9
:1055B000C8F80430444600222EE7921001209040A3
:1055C000D8F8042019460243C8F8042075E740F2D1
:1055D00054539C451BD84FEA954C0CF17C0C4FEA78
:1055E0004C01E7E50AF1100AA3E6542B1FD80A0B79
:1055F0006E3250004FE7CBF30B0100297FF4B1AEC0
:105600000AEB0901BA6841F001015160F6E6FC219C
:105610004FF07E0CCEE501224FF0000ACBE604F1FC
:105620000801304600F0C8F8DAF80030E6E6B3F5D5
:10563000AA7F03D8CA0B773250002CE740F25452AD
:10564000934203D88A0C7C32500024E7FC207E224F
:1056500021E77B688DE700BF5C040020F0B484077D
:1056600043D0541E002A3ED0CDB2034603E0621E52
:10567000002C38D0144603F8015B9A07F7D1032CAD
:105680002AD9CDB245EA05250F2C45EA054515D99D
:10569000A4F110073F0903F1100606EB07161A469E
:1056A000156055609560D5601032B242F8D104F0B3
:1056B0000F040137032C03EB07130DD91E462246B6
:1056C000043A032A46F8045BFAD8221F22F00302A8
:1056D0000432134404F003042CB1C9B21C4403F88F
:1056E000011BA342FBD1F0BC704714460346C6E73A
:1056F000704700BF704700BF38B5074C0023054610
:1057000008462360FEF7B8FD431C00D038BD23686F
:10571000002BFBD02B6038BDBC090020F8B5234D11
:105720000F460446FFF7E4FFAB685E6826F0030609
:10573000F11B01F6EF7121F47F6121F00F01A1F55A
:105740008057B7F5805F07DB20460021FFF7D4FFC5
:10575000AB683344984204D02046FFF7CBFF0020CB
:10576000F8BD20467942FFF7C7FF01300DD0104B3E
:10577000AA681968F61B46F001062046C91B566048
:105780001960FFF7B7FF0120F8BD20460021FFF7A1
:10579000B3FFAB68C21A0F2ADEDD064D04492D683F
:1057A00042F00102401B5A600860D5E75C0400200B
:1057B00088080020680800202DE9F0410D460646C3
:1057C000002955D0FFF794FF55F8041CDFF870C18D
:1057D000A5F1080421F00103E218DCF8080057687D
:1057E000904227F0030768D011F00101576032D0D2
:1057F0000021D0194068C00706D43B4490680029B6
:105800004DD0D268C260906043F001026260E35004
:10581000E1B9B3F5007F2DD35A0A042A69D8980953
:10582000383041000CEB810CDCF80820444962451B
:1058300065D0516821F003018B4202D292689445F1
:10584000F7D1D368E360A2609C60D4603046BDE8C5
:10585000F041FFF74FBF55F8085C0CF10808641BD6
:10586000A0682B44404542D0E568C560A860C0E709
:10587000BDE8F081DB089A1001209040DCF80410AC
:105880000CEBC3039A680143A260E360CCF80410F8
:1058900030469C60D460BDE8F041FFF72BBF294D36
:1058A000A842AED143F00102CCF81440CCF810402D
:1058B000E060A0606260E350C8E71F44CB0707D4F4
:1058C00055F8081C641AE368A2680F44D3609A6014
:1058D0001D4B47F001021B6862609F42CCF80840F4
:1058E000B4D31A4B30461968FFF718FFAEE7012111
:1058F0007FE7142A0BD802F15B00410092E7801089
:105900000125854048681346284348609AE7542A91
:1059100003D8180B6E30410084E7B2F5AA7F03D894
:10592000D80B773041007DE740F254518A4203D8CA
:10593000980C7C30410075E7FC217E2072E700BFA7
:105940005C04002064040020640800208408002017
:105950000D0ACFB5CDB3C6F4B6AFA3A10D0A0000B2
:1059600000A24A040000000000000000010203043D
:105970000607080900000000000000000000000009
:105980000100000000000000000000000000000016
:105990000000000000000000000000000000000007
:1059A00000000000000000000000000000000000F7
:1059B00000000000000000000000000000000000E7
:1059C00000000000000000000000000000000000D7
:105DA00018000020000000000000000001020304B1
:105DB00001020304060708090204060800000000A7
:105DC000000000005C0400205C040020640400204B
:105DD000640400206C0400206C0400207404002083
:105DE000740400207C0400207C0400208404002033
:105DF000840400208C0400208C04002094040020E3
:105E0000940400209C0400209C040020A404002092
:105E1000A4040020AC040020AC040020B404002042
:105E2000B4040020BC040020BC040020C4040020F2
:105E3000C4040020CC040020CC040020D4040020A2
:105E4000D4040020DC040020DC040020E404002052
:105E5000E4040020EC040020EC040020F404002002
:105E6000F4040020FC040020FC04002004050020B1
:105E7000040500200C0500200C050020140500205E
:105E8000140500201C0500201C050020240500200E
:105E9000240500202C0500202C05002034050020BE
:105EA000340500203C0500203C050020440500206E
