:020000040800F2
:10380000006000204147000845470008594700086C
:103810006D4700088147000895470008A947000840
:10382000A9470008A9470008A9470008A9470008B8
:10383000A9470008A9470008D700010841750008FA
:10384000B3440008BD440008C7440008D144000840
:10385000DB440008E5440008EF440008F944000890
:10386000034500080D4500081745000821450008DC
:103870002B450008354500083F450008494500082C
:10388000534500085D45000867450008714500087C
:103890007B450008854500088F45000899450008CC
:1038A000A3450008AD450008B7450008C14500081C
:1038B000CB450008D5450008DF450008E94500086C
:1038C000F3450008FD4500080746000811460008BA
:1038D0001B460008254600082F4600083946000808
:1038E000434600084D46000857460008AB4700080D
:1038F000AB470008AB470008AB470008AB470008E0
:10390000AB470008AB470008614600086B4600085B
:10391000754600087F46000889460008934600085F
:103920009D460008A7460008B1460008BB460008AF
:10393000C5460008CF460008D9460008E3460008FF
:10394000ED460008F7460008014700080B4700084D
:10395000DFF80CD00CF0DEFA004800475B3E0008B0
:103960000060002088B000250027002601F04EF8F6
:1039700007A808F04AFF074692E007A806AB05AA89
:1039800000210090642007F090FC0446BDF81C0064
:10399000002878D100262168086804E08179FC4A73
:1039A00091550068761C6168814201D0322EF5D3B2
:1039B00020688079FD282ED0FE2862D1002561681C
:1039C0008888F44AF24900F0AEFB8146022002905A
:1039D000F04800788DF80C00EE4841788DF80D1015
:1039E00081788DF80E10C1788DF80F1001798DF85F
:1039F000101041798DF8111081798DF81210C1796C
:103A00008DF8131007A80023012202A90090E248B4
:103A100007F0FFFD36E007A808F0F7FEC01B0544DD
:103A200007A808F0F2FE0746B5F57A7F0DD9032006
:103A30000290DA4800788DF80C0007A800230122D4
:103A400002A90090D44807F0E4FD61688988891EC6
:103A500088B2D04ACE4900F08CFB8046FE2001900F
:103A6000012101A800F0BEFF08F0FF01C94800F0E5
:103A7000B9FFFF200190012101A800F0B3FF01E090
:103A800001E000BF0CE06D1C0A2D09D1032002905B
:103A900007A80023012202A90090BF4807F0B9FD42
:103AA0006BE7002000BF10E0BD4A411C02EBC101E2
:103AB00042F83010BB49095C02EBC0029171411C15
:103AC000B74A02EBC0029180401C0928ECD3B449EC
:103AD0000A4642F83010B349095C02EBC00291710A
:103AE000411CAF4A02EBC0029180704786B00024AF
:103AF00000BF09F00CFC09F0A8FC09F054FDECE053
:103B000005A804AB03AA002100900A2007F0CDFB12
:103B10000546BDF8140000287ED12868012804D08D
:103B2000022858D0032878D17BE0022009F0F3FB6B
:103B30000404012009F0EFFB0443E44300270020C4
:103B400005E001218140214200D07F1C401C20283B
:103B5000F7DB032F00D90024002009E008B11F285B
:103B600002D19049095C00E000218E4A1154401CAA
:103B70002028F3D300201DE001218140214218D0EC
:103B800000EB4001884A11444978491C854A515C40
:103B900000EB4002844B1A44937801229A4011436F
:103BA000CAB200EB4001804B19444978491C7D4B57
:103BB0005A54401C2028DFD3FFF773FF7848019048
:103BC0004830029005A80023012201A900907748FF
:103BD00007F01FFD2AE04FF00008E8790106A879F8
:103BE00001EB0041687901EB0020297900EB010825
:103BF00000260EE00123B34003EA08026C4B03EBFE
:103C00008603D9786A4B03EB8603987809F0A5FC04
:103C1000761C202EEED301E009E006E009F0C3FC9B
:103C200004E0012009F0DDFC00E000BF55E00220C7
:103C300009F071FB0404012009F06DFB0443E44327
:103C40000026002005E001218140214200D0761CA1
:103C5000401C2028F7DB032E00D90024002009E0B7
:103C600008B11F2802D14F49095C00E000214D4AEC
:103C70001154401C2028F3D300201DE00121814075
:103C8000214218D000EB4001474A11444978491CB1
:103C9000444A515C00EB4002434B1A4493780122A2
:103CA0009A401143CAB200EB40013F4B1944497896
:103CB000491C3C4B5A54401C2028DFD3FFF7F1FE2F
:103CC000374801904830029005A80023012201A93D
:103CD0000090364807F09DFC00BF11E700F04CFE55
:103CE0000AF009F801E00AF0CDF9FCE700B58BB065
:103CF0000AA8032100220592CDE906210890114669
:103D00004FF416722B48D0F8F0002A4BCDE9013061
:103D1000CDE9032105200023274A28A100902B4844
:103D200007F008F90AA8032100220592CDE906212F
:103D300008900A214FF416722548D0F8F000244B61
:103D4000CDE90130CDE9032104200023214A22A13D
:103D50000090114807F0EEF80AA80321002205920E
:103D6000CDE9062108900A224FF416711F48D0F8B9
:103D7000F0001E4BCDE90130CDE9031203200023F2
:103D80001B4A1CA10090094807F0D4F80BB000BDF5
:103D9000382500206A25002008040020DC0E0108D8
:103DA000E824002008000020340A0108480300200D
:103DB000940A0108C8080020DD3C0008417070200A
:103DC0005461736B205465726D00000088020020FE
:103DD00028120020ED3A0008417070205461736B86
:103DE00020446973706C617900000000881B00201A
:103DF00065390008417070205461736B20436F6D0A
:103E00006D000000704708B500F047F901F002FBB3
:103E100000F03BF9044626480068B4FBF0F528465C
:103E200003F0A8FB01F0B4FD01F086FD00F059F8A5
:103E3000684606F033FD002000F0F3F9FFF7E2FFDB
:103E4000FFF754FF00BF07E0012000F00FFA6A46B9
:103E50000021642008F012FBF6E700B58BB015498D
:103E60004FF000600AF09AFB00F0B9FA0AA803F0DC
:103E700007FC0AA8032100220592CDE9062108903B
:103E800011464FF480720C48406E0B4BCDE9013067
:103E9000CDE9032106200023084A09A100900C481F
:103EA00007F048F80AA803F0D5FD00200BB000BDCC
:103EB0006C11010800380000C8040020073E00080B
:103EC000417070205461736B2053746172740000F0
:103ED000C8010020704770477047704770477047AF
:103EE000704710B5002400BF00BF01F0CFFB0446AF
:103EF00000BF00BFAFF2170021490860AFF22100F8
:103F000020490860AFF22B001F490860AFF235006E
:103F10001E490860AFF23F001D490860AFF249003A
:103F20001C490860AFF253001B49086000BF00BF86
:103F3000204601F0AFFB00BF00BF10BD10B500244C
:103F400000BF00BF01F0A2FB044600BF00BF00207D
:103F50000B4908600B4908600B4908600B49086071
:103F60000B4908600B4908600B49086000BF00BF9F
:103F7000204601F08FFB00BF00BF10BD704700005E
:103F800044000020480000204C0000205000002089
:103F900054000020580000205C00002008B52020BC
:103FA000ADF8000004208DF8030003208DF8020016
:103FB0006946FA480AF0F4FE08BD08B5012104205C
:103FC0000BF0A4F94FF4C050ADF8000003208DF8B9
:103FD000020010208DF803006946F1480AF0E0FE67
:103FE00008BD08B5012114200BF090F90121ED481E
:103FF0000AF0A5FF10208DF8030003208DF80200C1
:104000004FF48070ADF800006946E5480AF0C8FE3C
:104010004FF4C070ADF800006946E3480AF0C0FEF6
:1040200048208DF8030003208DF802004FF4007043
:10403000ADF800006946DC480AF0B2FE8021DA489B
:104040000AF059FF4FF48071D7480AF056FF4FF439
:104050008071D3480AF051FF002000E0401C42F27A
:1040600010718842FADB4FF48071CF480AF043FFA9
:10407000002000E0401C42F210718842FADB4FF44D
:104080008071C7480AF037FF08BD00B585B06846A3
:104090000BF0CFF8019805B000BD10B500F0E1F9C4
:1040A0000AF0CAFF4FF480200AF0E6FF0BF023F875
:1040B00000200BF066F800200BF075F84FF48060DC
:1040C0000BF068F84FF400400BF087F802200AF07C
:1040D00029FB10200AF03AFB4FF4801108110BF075
:1040E00033F801200BF03CF800BF39200AF0E7FF5D
:1040F0000028FAD002200BF036F800BF0BF03CF895
:104100000828FBD1FFF7C1FFA849B0FBF1F0A8498F
:104110000860084600680860FFF763FFFFF74DFF7F
:10412000FFF73CFF10BDF0B503460C4615460022D4
:10413000002100BF19E0481C10F0070F00D1491CF6
:10414000481C984210D2605C4E1C06F00706B04036
:104150004E1CA65D76004F1C07F00707C7F1080745
:104160003E413043A854521C491C9942E3D390B2BB
:10417000F0BD2DE9F04105460B4614460022002112
:1041800025E00720B1FBF0F800FB181018B9585CC7
:104190004010A054521C0720B1FBF0F800FB18108F
:1041A000471C585CC7F1080800FA08F0C6B2761040
:1041B000481CA84208D2185C07F1010840FA08FC24
:1041C00046EA0C00A05400E0A654521C491CA94227
:1041D000D7D390B2BDE8F08110B5044634B1012CBC
:1041E0000AD0022C0ED0032C18D111E04FF4C0518C
:1041F0006B480AF082FE12E04FF4006168480AF052
:104200007CFE0CE04FF4805165480AF076FE06E033
:104210004FF4806162480AF070FE00E000BF00BF0A
:1042200010BD10B5044634B1012C0AD0022C0ED0BA
:10423000032C18D111E04FF4C05159480AF05BFE2D
:1042400012E04FF4006156480AF055FE0CE04FF4BE
:10425000805153480AF04FFE06E04FF48061504809
:104260000AF049FE00E000BF00BF10BD70B5044673
:1042700034B1012C17D0022C32D0032C67D14CE082
:1042800047480AF034FE054685F4C05505F4C05190
:1042900043480AF030FE4FF4C05020EA0501404880
:1042A0000AF02BFE54E03E480AF021FE054604F1D8
:1042B0000A00012101FA00F0284208D104F10A00A5
:1042C0000122824091B236480AF015FE07E004F15F
:1042D0000A000122824091B231480AF00EFE37E016
:1042E0002F480AF004FE054604F10A00012101FAF4
:1042F00000F0284208D104F10A000122824091B264
:1043000027480AF0F8FD07E004F10A000122824084
:1043100091B223480AF0F1FD1AE021480AF0E7FDC6
:104320000546E01D012101FA00F0284207D1E01DF9
:104330000122824091B21A480AF0DDFD06E0E01D3C
:104340000122824091B216480AF0D7FD00E000BF7A
:1043500000BF70BD70B50446012C06D120210F4866
:104360000AF0AFFD0546284670BD0020FCE710B5F9
:104370001048006840F080700E49086000200E4927
:1043800048600846006840F001000860FFF77DFEC5
:104390000446204601F0AFF810BD0000000C0140BB
:1043A00000080140000430000010014040420F00AE
:1043B00014000020FCED00E0001000E0014840681F
:1043C00070470000001000E0704710B50446442C10
:1043D00004D204F11001C8B200F078FC10BD10B591
:1043E00001F050F910BD10B50446442C04D204F17C
:1043F0001001C8B200F00FFD10BD70B504460D46A7
:104400000026442C10D200BF00BF01F03FF9064641
:1044100000BF00BFC74840F8245000BF00BF30466F
:1044200001F038F900BF00BF70BD70B504460D46FD
:104430000026442C13D200BF00BF01F027F9064626
:1044400000BF00BF04F11001C8B2294600F0DBFD37
:1044500000BF00BF304601F01DF900BF00BF70BDB6
:10446000704710B5002404E0B3492046FFF7C5FFAC
:10447000641C442CF8D310BD70B50446002600BF60
:1044800000BF01F003F9064600BF00BF03F079F951
:1044900000BF00BF304601F0FDF800BF00BF442C54
:1044A00004D2A44850F8245005B1A84703F07AF983
:1044B00070BD10B50020FFF7DFFF10BD10B5012063
:1044C000FFF7DAFF10BD10B50220FFF7D5FF10BDD2
:1044D00010B50320FFF7D0FF10BD10B50420FFF783
:1044E000CBFF10BD10B50520FFF7C6FF10BD10B5FE
:1044F0000620FFF7C1FF10BD10B50720FFF7BCFF76
:1045000010BD10B50820FFF7B7FF10BD10B509208A
:10451000FFF7B2FF10BD10B50A20FFF7ADFF10BDC9
:1045200010B50B20FFF7A8FF10BD10B50C20FFF74A
:10453000A3FF10BD10B50D20FFF79EFF10BD10B5F5
:104540000E20FFF799FF10BD10B50F20FFF794FF65
:1045500010BD10B51020FFF78FFF10BD10B5112052
:10456000FFF78AFF10BD10B51220FFF785FF10BDC1
:1045700010B51320FFF780FF10BD10B51420FFF712
:104580007BFF10BD10B51520FFF776FF10BD10B5ED
:104590001620FFF771FF10BD10B51720FFF76CFF55
:1045A00010BD10B51820FFF767FF10BD10B519201A
:1045B000FFF762FF10BD10B51A20FFF75DFF10BDB9
:1045C00010B51B20FFF758FF10BD10B51C20FFF7DA
:1045D00053FF10BD10B51D20FFF74EFF10BD10B5E5
:1045E0001E20FFF749FF10BD10B51F20FFF744FF45
:1045F00010BD10B52020FFF73FFF10BD10B52120E2
:10460000FFF73AFF10BD10B52220FFF735FF10BDB0
:1046100010B52320FFF730FF10BD10B52420FFF7A1
:104620002BFF10BD10B52520FFF726FF10BD10B5DC
:104630002620FFF721FF10BD10B52720FFF71CFF34
:1046400010BD10B52820FFF717FF10BD10B52920A9
:10465000FFF712FF10BD10B52A20FFF70DFF10BDA8
:1046600010B53220FFF708FF10BD10B53320FFF75B
:1046700003FF10BD10B53420FFF7FEFE10BD10B5CE
:104680003520FFF7F9FE10BD10B53620FFF7F4FE18
:1046900010BD10B53720FFF7EFFE10BD10B5382064
:1046A000FFF7EAFE10BD10B53920FFF7E5FE10BD9B
:1046B00010B53A20FFF7E0FE10BD10B53B20FFF724
:1046C000DBFE10BD10B53C20FFF7D6FE10BD10B5C7
:1046D0003D20FFF7D1FE10BD10B53E20FFF7CCFE08
:1046E00010BD10B53F20FFF7C7FE10BD10B540202C
:1046F000FFF7C2FE10BD10B54120FFF7BDFE10BD93
:1047000010B54220FFF7B8FE10BD10B54320FFF7EB
:10471000B3FE10BD00BFFEE77047084800680748B9
:10472000001D006800BFFEE700BFFEE700BFFEE718
:1047300000BFFEE79C2500206144000828ED00E052
:104740001A4800471EF0040F0CBFEFF30880EFF388
:104750000980FFF7DFBFFEE71EF0040F0CBFEFF389
:104760000880EFF30980FFF7D8BFFEE71EF0040FC3
:104770000CBFEFF30880EFF30980FFF7D5BFFEE72A
:104780001EF0040F0CBFEFF30880EFF30980FFF772
:10479000CDBFFEE71EF0040F0CBFEFF30880EFF370
:1047A0000980FFF7C5BFFEE7FEE7FEE751390008C5
:1047B00010B5012105200AF0A9FD012188030AF0A6
:1047C000A5FD10BD10B5012109200AF09FFD0121B2
:1047D00088040AF0A8FD10BD08B54FF40070ADF8CC
:1047E000000003208DF8020018208DF803006946B0
:1047F000FC480AF0D5FA4FF48060ADF8000048207C
:104800008DF803006946F7480AF0CAFA08BD08B5F2
:104810004FF48060ADF8000003208DF802001820EE
:104820008DF803006946F0480AF0BAFA4FF40060C8
:10483000ADF8000048208DF803006946EA480AF008
:10484000AFFA08BD08B540F22551E8480BF010F961
:1048500070B1E6480BF08CF8E54908706A46002113
:10486000E44805F01EFF40F22551E0480BF02AF91C
:1048700040F22661DD480BF0FBF820B140F22661E2
:10488000DA480BF01FF908BD002000BF06E0DA4A45
:10489000411C02EBC10142F83010401CB0F5F97F19
:1048A000F5D9D5490A4642F8301070471CB540F298
:1048B0002551D2480BF0DCF800285BD040F225519E
:1048C000CE480BF0FFF8CD480BF052F8C4B2CC48FC
:1048D000006810B9C848CA490860C948006800B9EA
:1048E0001CBDC74800688471C64801880068401C28
:1048F000C44A106088B2C24909688880C04800680C
:104900008079FE280DD1BE480068BF49BF4A1268B1
:1049100041F832000020BB490860B9490968888025
:1049200022E0B74800688079FF281DD1B4480068AC
:10493000B549B64A126801EBC201486001A800906F
:10494000B148B24A126800EBC20100230822B04805
:1049500006F05FFEAD480068401C0A21B0FBF1F292
:1049600001FB1200A9490860A54800680068A44935
:10497000086000BF00BFB3E700B585B0FFF718FFC0
:104980009A480AF0B5FEFFF727FF4FF4E130019097
:104990000020ADF80800ADF80A00ADF80C00ADF845
:1049A00010000C20ADF80E0001A990480AF0E3FEBB
:1049B00001218E480AF06BFF012240F225518B48FD
:1049C0000AF071FF6B46002292A18A4805F08DFB28
:1049D000AFF28F112520FFF710FD2520FFF703FD13
:1049E00005B000BD70B505460E4600240BE0285DFD
:1049F0008249091D088000BF802180480BF022F801
:104A00000028F9D0641CB442F1D370BD1FB5FFF784
:104A1000D9FE7A480AF06CFEFFF7F9FE4FF4E13058
:104A200000900020ADF80400ADF80600ADF80800D5
:104A3000ADF80C000C20ADF80A0069466F480AF08A
:104A40009AFE01216D480AF022FF012240F2255111
:104A50006A480AF028FFFFF717FFAFF2AF112720CF
:104A6000FFF7CBFC2720FFF7BEFC1FBD1CB540F2B3
:104A700025516B480AF0FCFF002405E06949601CE1
:104A8000085C0855601CC4B2092CF7DB64480AF0C6
:104A90006FFF6449487208460078FD2840D10846F7
:104AA0008079DD283CD10846C079CC2838D1084629
:104AB000007ABB2834D10846407AAA2830D108466B
:104AC00080780006C97800EB01405649097900EB6F
:104AD00001205449497908445349544A127841F80D
:104AE000220001A800900846504A127800EB82018B
:104AF000002301224E4806F08CFD4C480078401CF3
:104B00000A2190FBF1F201FB1200484908700024D1
:104B100004E0002043490855601CC4B20A2CF8DBAD
:104B200040F225513E480AF0CDFF1CBD00B585B0CE
:104B3000012105200AF0EAFB012148040AF0F3FBF9
:104B40000420ADF8000003208DF8020018208DF835
:104B50000300694623480AF023F90820ADF8000055
:104B600048208DF8030069461E480AF019F92C48C0
:104B70000AF0BEFD4FF4E12001900020ADF80800DE
:104B8000ADF80A00ADF80C00ADF810000C20ADF83F
:104B90000E0001A922480AF0EEFD012240F2255143
:104BA0001F480AF080FEAFF23B112620FFF725FCDC
:104BB0002620FFF718FC012119480AF068FE05B00D
:104BC00000BD70B504460D46E0B20849091D0880D5
:104BD00000BF802105480AF035FF0028F9D02046A3
:104BE00070BD000000080140000C01400038014089
:104BF0001C000020E026002008270020004800407C
:104C00002800002024000020A836002020000020DA
:104C100048030020556172742052656353656D002E
:104C200000440040AC260020B82600202C000020C4
:104C3000080400203EB5044602A801AB002211463C
:104C40000090034805F047FB024800783EBD000095
:104C5000E02600201C00002010B5B0F1005F0AD350
:104C6000F84CA04207D8440104EB810303F1085239
:104C7000002414600CE0B0F1804F09D3F24CA04244
:104C800006D8440104EB810303F18442002414603C
:104C900010BD10B5B0F1005F0AD3EA4CA04207D8AE
:104CA000440104EB810303F10852012414600CE079
:104CB000B0F1804F09D3E44CA04206D8440104EB84
:104CC000810303F184420124146010BD2DE9F041F9
:104CD00004464FF00008102C6BD2DFE804F0080EF9
:104CE0000F1014293E090A0B0C11120D135300BFAB
:104CF00000BF00BF00BF00BF8AE000BF00BF00BF11
:104D000000BF00BF84E000BF00BF00F0BFFC8046D2
:104D100000BF00BFCD48006820F48030CB49086058
:104D200000BF00BF404600F0B5FC00BF00BF6FE011
:104D300000BF00BF00F0AAFC804600BF00BFC34810
:104D4000006820F40030C149086000BF00BF404641
:104D500000F0A0FC00BF00BF5AE000BF00BF00F0A1
:104D600095FC804600BF00BFB848006820F4802052
:104D7000B649086000BF00BF404600F08BFC00BF92
:104D800000BF45E000BF00BF00F080FC804600BFD0
:104D900000BF4FF0E020006920F001004FF0E0215B
:104DA000086100BF00BF404600F074FC00BF00BFB8
:104DB0002EE04FF0E0204068401C102101EB401035
:104DC000C6B2B44223DAA4F11000C11700EBD161DE
:104DD000C1F34715C11700EBD1614911A0EB411197
:104DE000CFB200BF00BF00F051FC804600BF00BF43
:104DF0000120B8404FF0E02101EB8501C1F88001AE
:104E000000BF00BF404600F045FC00BF00BF00BF30
:104E100000BFBDE8F0812DE9F04104464FF00008E5
:104E2000102C6BD2DFE804F0080E0F1014293E0995
:104E30000A0B0C11120D135300BF00BF00BF00BFBF
:104E400000BF8AE000BF00BF00BF00BF00BF84E01A
:104E500000BF00BF00F01AFC804600BF00BF7B48C7
:104E6000006840F480307949086000BF00BF4046C8
:104E700000F010FC00BF00BF6FE000BF00BF00F0FB
:104E800005FC804600BF00BF7048006840F4003059
:104E90006E49086000BF00BF404600F0FBFB00BF4A
:104EA00000BF5AE000BF00BF00F0F0FB804600BF2B
:104EB00000BF6648006840F480206449086000BF75
:104EC00000BF404600F0E6FB00BF00BF45E000BF6A
:104ED00000BF00F0DBFB804600BF00BF4FF0E020CA
:104EE000006940F001004FF0E021086100BF00BF01
:104EF000404600F0CFFB00BF00BF2EE04FF0E020A7
:104F00004068401C102101EB4010C7B2BC4223DABC
:104F1000A4F11000C11700EBD161C1F34715C1170F
:104F200000EBD1614911A0EB4111CEB200BF00BF2F
:104F300000F0ACFB804600BF00BF0120B0404FF046
:104F4000E02101EB8501C1F8000100BF00BF404630
:104F500000F0A0FB00BF00BF00BF00BFBDE8F081B4
:104F60002DE9F04104464FF00008102C19D2DFE87B
:104F700004F0080E0F10111516090A0B0C12130D70
:104F8000141700BF00BF00BF00BF00BF38E000BF64
:104F900000BF00BF00BF00BF00BF00BF00BF00BF19
:104FA0002EE04FF0E0204068401C102101EB401043
:104FB000C7B2BC4223DAA4F11000C11700EBD161E3
:104FC000C1F34715C11700EBD1614911A0EB4111A5
:104FD000CEB200BF00BF00F059FB804600BF00BF4B
:104FE0000120B0404FF0E02101EB8501C1F88002C3
:104FF00000BF00BF404600F04DFB00BF00BF00BF38
:1050000000BFBDE8F0812DE9F05F06460D464FF088
:10501000000B284600F04DFB82464FEA1A65102E21
:1050200071D2DFE806F008151617182D43090A0B90
:105030000C59710D879E00BF00BF00BF00BF00BFAD
:10504000DFE00000FFFF0F20FFFF0F4024ED00E036
:1050500000BF00BFD5E000BF00BF00F017FB8346D4
:1050600000BF00BFD848046824F0FF042C4304604C
:1050700000BF00BF584600F00DFB00BF00BFC0E0FE
:1050800000BF00BF00F002FB834600BF00BFCE4858
:10509000046824F47F4444EA0524046000BF00BF90
:1050A000584600F0F7FA00BF00BFAAE000BF00BFFB
:1050B00000F0ECFA834600BF00BFC348046824F444
:1050C0007F0444EA0544046000BF00BF584600F076
:1050D000E1FA00BF00BF94E000BF00BF00F0D6FAC5
:1050E000834600BF00BFB848001D046824F07F4419
:1050F00044EA0564046000BF00BF584600F0CAFAE5
:1051000000BF00BF7DE043E000BF00BF00F0BEFA7B
:10511000834600BF00BFAC480830046824F0FF0499
:105120002C43046000BF00BF584600F0B3FA00BF34
:1051300000BF66E000BF00BF00F0A8FA834600BFD2
:1051400000BFA1480830046824F47F0444EA054401
:10515000046000BF00BF584600F09CFA00BF00BFCB
:105160004FE000BF00BF00F091FA834600BF00BFD0
:1051700095480830046824F07F4444EA05640460DC
:1051800000BF00BF584600F085FA00BF00BF38E0FE
:105190004FF0E0204068401C102101EB401000F06F
:1051A000FF094E452CDAA6F11000C11700EB9171F2
:1051B000C1F38707C11700EB91718910A0EB810142
:1051C00001F0FF0800BF00BF00F060FA834600BF97
:1051D00000BF7E4850F827404FEAC801FF208840B2
:1051E00084434FEAC80105FA01F00443774840F8C8
:1051F000274000BF00BF584600F04CFA00BF00BF78
:1052000000BF00BFBDE8F09F2DE9F05F06464FF0FC
:10521000000B102E70D2DFE806F0080F1215182AC6
:105220003D090A0B0C495C0D708400BF00BF00BF34
:1052300000BF00BF664CBAE06FF00204B7E06FF049
:105240000104B4E04FF0FF34B1E000BF00BF00F054
:105250001DFA834600BF00BF5B480568ECB200BF83
:1052600000BF584600F016FA00BF00BF9FE000BF25
:1052700000BF00F00BFA834600BF00BF524805682C
:10528000C5F3072400BF00BF584600F003FA00BF73
:1052900000BF8CE000BF00BF00F0F8F9834600BFFC
:1052A00000BF49480568C5F3074480E000BF00BF60
:1052B00000F0ECF9834600BF00BF4348001D0568BD
:1052C0002C0E00BF00BF584600F0E4F900BF00BF3D
:1052D0006DE000BF00BF00F0D9F9834600BF00BFFA
:1052E000394808300568ECB200BF00BF584600F0EE
:1052F000D1F900BF00BF5AE026E000BF00BF00F0B8
:10530000C5F9834600BF00BF2F4808300568C5F3C4
:10531000074400BF00BF584600F0BCF900BF00BF03
:1053200045E000BF00BF00F0B1F9834600BF00BFF9
:105330002548083005682C0E00BF00BF584600F015
:10534000A9F900BF00BF32E04FF0E0204068401CE8
:10535000102101EB401000F0FF0A564525DAA6F1B6
:105360001000C11700EB9171C1F38707C11700EB63
:1053700091718910A0EB810101F0FF0900BF00BF0E
:1053800000F084F9834600BF00BF104850F8275052
:1053900000BF00BF584600F07DF900BF00BF4FEAD4
:1053A000C90025FA00F0C4B200E0094C00BF00BFFC
:1053B000002C05DB204600F07CF980464FEA18649B
:1053C0002046BDE8F09F000018ED00E000E400E09A
:1053D0000080FFFF10B5002400BF00BF00F056F9A9
:1053E000044600BF00BF1021A34800F01DFB00BF12
:1053F00000BF204600F04EF900BF00BF10BD10B541
:10540000FFF7E8FF10BD10B500209C490860FEF7CB
:10541000AEFF10BD10B5FFF7F6FFFFF7F0FF10BDB0
:1054200000BFFEE770B505460C46002614B900BF64
:10543000FFF7F6FF15B90A20208070BD00BF00BF3E
:1054400000F024F9064600BF00BF10228A49284612
:1054500001F018FA00BF00BF304600F01BF900BF92
:1054600000BF0020208000BFE7E72DE9F04105469E
:105470000C46002714B900BFFFF7D2FF1DB90A2060
:105480002080BDE8F0811021284601F0E3F90646AE
:10549000102E15D200BF00BF00F0F8F8074600BF7D
:1054A00000BF10222946744801F0ECF900BF00BF8C
:1054B000384600F0EFF800BF00BF0020208002E077
:1054C0004FF47A70208000BFDBE710B5FEF776FF5F
:1054D0000446204610BD704700B5014611B900BF13
:1054E000FFF79EFF654A106808B1002201E04FF403
:1054F000FA620A8000BD61490860704770B50546D0
:10550000284600F0CEF80446183C204670BD70B521
:105510000546284600F0C5F80446103C204670BDFC
:1055200070B50546284600F0BCF8044600BF20468A
:1055300070BD30B502460B464FF0FF354FF000040A
:10554000AD1A9C4127D24FF0FF352C0CAD1A9C416F
:105550000FD24FF0FF352C0AAD1A9C4103D2190E21
:10556000474C605C45E0190C454C645C04F1080054
:105570003FE04FF0FF35FF24AD1A9C4105D2190AD8
:105580003F4C645C04F1100033E019463C4C645C11
:1055900004F118002DE04FF6FF750024AD1A9C4170
:1055A00015D26FF07F450024AD1A9C4107D2140E2E
:1055B00044EA0321324C645C04F1200019E0140C2D
:1055C00044EA03412E4C645C04F1280011E0FF25FD
:1055D0000024AD1A9C4107D2140A44EA0361284C06
:1055E000645C04F1300004E01146254C645C04F175
:1055F000380030BD70B504460CB9082070BD204697
:1056000000F052F805462846F8E770B504460CB994
:10561000102070BD204600F047F805462846F8E700
:1056200070B504460CB9202070BD204600F03CF84F
:1056300005462846F8E72DE9F04304460D464FF0AD
:10564000000184EA010085EA0101084302D14020FB
:10565000BDE8F083E243E843521C40F1000102EA56
:10566000040601EA050730463946FFF762FF804627
:10567000C8F13F094846EBE7F8360020300000202B
:10568000780F010872B6704762B67047EFF310806A
:1056900072B6704780F31088704730BF704720BFE4
:1056A0007047B0FA80F0704790FAA0F0B0FA80F03E
:1056B000704790FAA0F070470146412903DB5A2950
:1056C00001DC012200E00022012A08D0612903DB6D
:1056D0007A2901DC012200E00022012A01D1012205
:1056E00000E00022104670470146412903DB5A2999
:1056F00001DC012200E00022012A08D0612903DB3D
:105700007A2901DC012200E00022012A01D10122D4
:1057100000E00022012A08D0302903DB392901DC0E
:10572000012200E00022012A01D1012200E0002232
:10573000104670470146612903DB7A2901DC01220A
:1057400000E00022104670470146412903DB5A2938
:1057500001DC012200E0002210467047014630299A
:1057600003DB392901DC012200E0002210467047EA
:105770000146302903DB372901DC012200E0002249
:10578000104670470146302901DB392907DD4129E0
:1057900001DB462903DD612903DB662901DC0122E7
:1057A00000E00022104670470146202901D0092957
:1057B00001D1012200E00022104670470146202955
:1057C00009D00D2907D00A2905D00C2903D00929B1
:1057D00001D00B2901D1012200E0002210467047C0
:1057E0000146202903DB7E2901DC012200E00022A2
:1057F000104670470146212903DB7E2901DC012286
:1058000000E00022104670470146202903DB7E2974
:1058100001DC012200E00022012A35D1202909D033
:105820000D2907D00A2905D00C2903D0092901D058
:105830000B2901D1012200E000222ABB412903DB10
:105840005A2901DC012200E00022012A08D0612946
:1058500003DB7A2901DC012200E00022012A01D1C8
:10586000012200E00022012A08D0302903DB392977
:1058700001DC012200E00022012A01D1012200E026
:1058800000220AB9012200E00022104670470146BA
:105890004AB2002A01DB1F2901DD7F2901D1012243
:1058A00000E00022104670470146412903DB5A29D7
:1058B00001DC012200E00022012A02D101F12002D4
:1058C00000E00A46D0B270470146612903DB7A291D
:1058D00001DC012200E00022012A02D1A1F1200214
:1058E00000E00A46D0B27047F0B504460B462046A9
:1058F000FFF7EAFF05461846FFF7E6FF0646B54202
:1059000001D1012000E0002007463846F0BD00002C
:1059100070B50446002500BF00BFFFF7B7FE05467F
:1059200000BF00BF1848046000BF00BF2846FFF753
:10593000B1FE00BF00BF70BD10B50120FFF7E8FF4A
:1059400010BD014643F23902104B03FB012222F045
:105950000040704770B5002600BF00BFFFF796FEFD
:10596000064600BF00BF084805682846FFF7E9FF64
:1059700004460548046000BF00BF3046FFF78AFEBA
:1059800000BF00BF204670BD340000206D4EC641F0
:10599000FD48FE4901600146416000218160C1600F
:1059A000016141618161C16101620163C162416262
:1059B000F7498163C1634FF440610164416401466A
:1059C000F44A116070472DE9F04103460C46174632
:1059D0000FB9BDE8F08103B9FBE70025002202E022
:1059E0002D022543521C042AFAD3384603F0030C37
:1059F0001946BCF1000F08D0624603E001F8014BE4
:105A0000401E521C08B1042AF8D30E4601E020C6FD
:105A1000001F0428FBD2314602E001F8014B401E72
:105A20000028FAD100BFD4E730B505460C4622461F
:105A300000212846FFF7C7FF30BD2DE9F04F85B0A4
:105A4000074688469146B9F1000F02D105B0BDE87E
:105A5000F08F07B9FAE7B8F1000F00D1F6E7464634
:105A60003D46AE4205D94A464146384601F086FBDE
:105A7000ECE74C463819451E08EB0400461EA81BEF
:105A800004900498042834D305F00300029006F033
:105A900003010191DDE90110884201D1012000E0FC
:105AA000002000900098012823D10298032810D0EC
:105AB000029840B2039008E016F8010905F80109C0
:105AC000641E0398401E40B2039014B1039800284E
:105AD000F2DAA5F1030AA6F1030B04E05BF804096E
:105AE0004AF80409241F042CF8D20AF103050BF12B
:105AF000030604E016F8010905F80109641E002CEC
:105B0000F8D100BFA2E72DE9F84F80468946154637
:105B100015B90120BDE8F88FB8F1000F01D10020C0
:105B2000F8E7B9F1000F01D10020F3E7012429467D
:105B300008EB050209EB050302F0030C03F0030B6D
:105B4000DC4501D1012000E00020009000980128F0
:105B500029D1BCF1000F12D0E2460AE0521E5B1EB2
:105B6000107893F800E0704500D00024491EAAF197
:105B7000010A012C03D111B1BAF1000FEED1012CB1
:105B800011D116461F4608E0361F3F1F3068D7F870
:105B900000E0704500D00024091F012C01D1042928
:105BA000F2D232463B4608E0521E5B1E107893F854
:105BB00000E0704500D00024491E012C01D10029CD
:105BC000F2D12046A6E7F0B503460D461646DA6B3D
:105BD000B2FBF6F006FB102CBCF1000F02D0A6EBD6
:105BE0000C0400E000246119586C884201D20020A6
:105BF000F0BDA14201D3A94201D20020F8E7571815
:105C0000974201D20020F3E72244DF63586C401A28
:105C100058641046ECE72DE9F04F81468C461C464F
:105C2000B9FBF4F004FB109BBBF1000F02D0A4EB16
:105C30000B0600E00026B2FBF4F004FB102BBBF1D6
:105C4000000F02D0A4EB0B0300E00023D018ACF14E
:105C5000010E00FB0E60871806EB0208B04501D369
:105C6000904502D20020BDE8F08FBCF1010F22D98F
:105C7000D5189D4201D3954201D20020F3E7ACF143
:105C8000010000FB05F1A94203D3994201D39142DF
:105C900001D20020E7E701EB020A8A4501D39245D1
:105CA00001D20020DFE7474503D38F4201D3574598
:105CB00001D20020D7E73846D5E72DE9FE4F074649
:105CC000884615461C46002000901CB900BFFFF70F
:105CD000A7FB00BF0DB901AD00BF002028602FB9A0
:105CE00042F2747020800020BDE8FE8FB8F1000FF2
:105CF00004D142F2757020800020F5E7DFF888902B
:105D000000BF00BFFFF7C2FC009000BF00BFD9F882
:105D10003C000290D9F844B043463A46012102982B
:105D2000FFF779FF064666B900BF00BF0098FFF78E
:105D3000B1FC00BF00BF2F6042F2E3702080002062
:105D4000D2E75E450ED900BF00BF0098FFF7A2FC66
:105D500000BF00BFA6EB0B00286042F2E27020807B
:105D60000020C1E7424639464846FFF72CFF8246ED
:105D7000BAF1000F15D100BF00BF0098FFF78AFCF1
:105D800000BF00BF2E6007E00837002048454150A3
:105D9000503700203800002042F2E27020800020BE
:105DA000A2E700BF00BF0098FFF774FC00BF00BF70
:105DB00042F210702080504696E72DE9FC5F0646BF
:105DC0000D461446002000901CB900BFFFF728FBC9
:105DD00000BF2DB942F2757020800020BDE8FC9F05
:105DE000B5F5805F04D942F2757020800020F5E798
:105DF00026B942F2117020800020EFE700BF00BFFB
:105E0000FFF744FC009000BF00BFFE493068401817
:105E100008D0FD49401803D0FC49401801D100BF0B
:105E20000CE000BF00BF00BF0098FFF733FC00BFCD
:105E300000BF42F2887020800020CFE700BFD6F874
:105E40000490D9F8380008B1484600E0F04882468E
:105E5000DAF84470DAF83CB000BF00BF0098FFF7F2
:105E600019FC00BF00BF012D0DD9BBFBF5F005FBF0
:105E700010B8B8F1000F02D0A5EB080000E0002038
:105E8000019001983F1A42F2107020803846A5E731
:105E900070B504460D462A462146DD48FFF78DFFC2
:105EA0000646304670BD70B504460D461DB900BFAC
:105EB000FFF7B6FA00BF1CB942F21170288070BD1E
:105EC000D0484042206000206060A060E060206117
:105ED0006061A061E0612062A06260632063E062B3
:105EE0006062A063E0632064606442F21070288006
:105EF00000BFE4E72DE9FF4F91B00446DDE92095AE
:105F0000002000901DB900BFFFF78AFA00BFB9F169
:105F1000000F02D10DF1100900BF0020C9F80000E8
:105F200029462046FFF7BFFF2888A0F51C511039ED
:105F300002D015B0BDE8F08F129828B1139818B9A7
:105F400042F27E702880F4E7149818B942F29270F9
:105F50002880EEE71E9818B942F293702880E8E78F
:105F60001F9818B942F294702880E2E7A9480068A7
:105F700018B942F2E7702880DBE7A54810904FF08F
:105F8000000A00BF00BFFFF781FB009000BF00BF09
:105F9000129800285BD1109E109E0E96109E3746D8
:105FA000109EF06B0B9004231A4614990B98FFF780
:105FB00032FE0390039850B900BF00BF0098FFF76E
:105FC00069FB00BF00BF42F2E3702880B1E703998C
:105FD0000B9808440A90DDE91E2314990A98FFF7EC
:105FE0001AFE8346BBF1000F0AD100BF00BF009824
:105FF000FFF750FB00BF00BF42F2E370288098E734
:10600000039800EB0B0A0398824501D3DA450AD2C4
:1060100000BF00BF0098FFF73DFB00BF00BF42F28A
:10602000E370288085E71098D0F84480C2457DD978
:1060300000BF00BF0098FFF72DFB00BF00BFAAEB19
:106040000800C9F8000042F2E270288071E7129857
:106050000990DDE912010844401E0890DDE90810AE
:1060600081420AD200BF00BF0098FFF713FB00BFB8
:1060700000BF42F2977028805BE7002600200E9058
:10608000644807683AE0B96B1298814205D1396CCF
:106090001398814201D13E4632E0B86B0790396CCB
:1060A000B86B0844401E0690DDE90701814200D22A
:1060B00026E007990998884203D8DDE9071088424D
:1060C0000FD207990998884203D306990898884205
:1060D00007D90699099888420ED8069908988842E7
:1060E0000AD300BF00BF0098FFF7D4FA00BF00BF7B
:1060F00042F27F7028801CE70E97FF68002FC2D104
:1061000000BF46B926461298A0631298E063139820
:106110002064139860641098C06B0B9004231A4697
:1061200014990B98FFF777FD039000E04CE003987B
:1061300050B900BF00BF0098FFF7ACFA00BF00BF26
:1061400042F2E3702880F4E61098D0F84480039877
:1061500040450FD900BF00BF0098FFF79BFA00BF72
:1061600000BF0398A0EB0800C9F8000042F2E270FB
:106170002880DEE6F06B0A90DDE91E2314990A9868
:10618000FFF749FD8346BBF1000F0AD100BF00BFF6
:106190000098FFF77FFA00BF00BF42F2D970288055
:1061A000C7E6D6F84480C3450ED900BF00BF0098AB
:1061B000FFF770FA00BF00BFABEB0800C9F80000A2
:1061C00042F2D8702880B4E614988000029004222D
:1061D00002991098FFF7F7FC0D900D9878BB109876
:1061E000D0F8448000BF00BF0098FFF753FA00BF0B
:1061F00000BF129898B9C2450ED9AAEB0800C9F899
:10620000000018E0B2B0B1BAFEFFFEF8080A0EFCBA
:106210000837002038000020C9F800A00BE00298E1
:10622000404505D90298A0EB0800C9F8000002E03B
:106230000298C9F8000042F2E270288079E6FFE790
:106240000020019032E03046DDE91E12FFF7BBFC72
:106250000C900C9810BBF06B0A90D6F8448000BFED
:1062600000BF0098FFF716FA00BF00BF019914980D
:10627000401A0590DDE91E2305990A98FFF7CBFC2B
:106280008246C24504D9AAEB0800C9F8000001E023
:10629000C9F800A042F2D87028804AE6019ADDE9E8
:1062A0000C0141F822000198401C019014990198BA
:1062B0008842C8D3A6420CD10E98A060E7600E9821
:1062C00010B10E98C46001E0FE4804605FB1BC608C
:1062D00009E070690F9026610F98606174610F98F2
:1062E00008B10F980461F848206066600A98A061C0
:1062F0000A985844401EE0610D982062C4F828B006
:106300001F9860631E9820631498E062149860627E
:1063100000BF00BF0098FFF7BDF900BF00BF42F209
:106320001070288000BF04E62DE9F04105460C46B8
:1063300000271CB900BFFFF773F800BF2DB942F268
:10634000117020800020BDE8F08100BF00BFFFF782
:106350009DF9074600BF00BFDC492868401808D0F7
:10636000DB49401803D0DB49401801D102E00DE0C1
:1063700000BF00BF00BF00BF3846FFF78BF900BF6A
:1063800000BF42F2887020800020DCE700BF6E6A08
:1063900000BF00BF3846FFF77DF900BF00BF42F2E3
:1063A000107020803046CEE72DE9F04104460E46BD
:1063B00015464FF000081DB900BFFFF731F800BFC8
:1063C0002CB942F2117028800020BDE8F08126B976
:1063D00042F2937028800020F7E700BF00BFFFF76C
:1063E00055F9804600BF00BFB749206888420BD0EE
:1063F00000BF00BF4046FFF74DF900BF00BF42F2AB
:10640000887028800020E0E7206BB0420BD200BFEC
:1064100000BF4046FFF73EF900BF00BF42F2937055
:1064200028800020D1E7606A58B900BF00BF40460D
:10643000FFF730F900BF00BF42F2DE702880002075
:10644000C3E7E16A606A88420BD900BF00BF4046DB
:10645000FFF720F900BF00BF42F2957028800020AE
:10646000B3E7606A401E6062D4E9080150F8217009
:1064700000BF00BF4046FFF70DF900BF00BF42F26A
:10648000107028803846A0E72DE9F04704460F46F3
:1064900015464FF000091DB900BFFEF7C1FF00BF50
:1064A0002CB942F2117028800020BDE8F08700BFAF
:1064B00000BFFFF7EBF8814600BF00BF82492068AC
:1064C00088420BD000BF00BF4846FFF7E3F800BF8B
:1064D00000BF42F2887028800020E6E7E16A606A27
:1064E00088420BD300BF00BF4846FFF7D3F800BF78
:1064F00000BF42F2957028800020D6E7E06AC01BFA
:10650000461EE06AB0420BD800BF00BF4846FFF706
:10651000C1F800BF00BF42F2957028800020C4E798
:10652000606AB0420BD900BF00BF4846FFF7B2F81F
:1065300000BF00BF42F2957028800020B5E7206AB6
:1065400050F8268000BF00BF4846FFF7A3F800BF01
:1065500000BF42F2107028804046A6E72DE9F04FB8
:1065600002460C469569D2F81CB0AC4201D35C459A
:1065700002D90020BDE8F08F536BB5FBF3F003FBAD
:10658000105111B1A3EB010C01E04FF0000C176B9F
:10659000B7FBF3F003FB107109B15E1A00E00026AF
:1065A00005EB0C08A4EB080A07EB0609BAFBF9F0A7
:1065B00009FB10A008B9012000E0002086467046C3
:1065C000D8E72DE9F04704460F4615464FF0000A7C
:1065D0001DB900BFFEF724FF00BF24B942F21170BD
:1065E0002880BDE8F0871FB942F211702880F8E7D3
:1065F00000BF00BFFFF74AF8824600BF00BF324924
:10660000206888420AD000BF00BF5046FFF742F81A
:1066100000BF00BF42F288702880E2E7394620467A
:10662000FFF79CFF8046B8F1010F0AD000BF00BF02
:106630005046FFF72FF800BF00BF42F29770288046
:10664000CFE7002610E0206A50F82600B8420AD1B1
:1066500000BF00BF5046FFF71DF800BF00BF42F269
:1066600098702880BDE7761C606AB042EBD8E16A7A
:10667000606A88420AD300BF00BF5046FFF70AF89D
:1066800000BF00BF42F2DD702880AAE74FF000088B
:10669000666A08E0206A50F82690B94502D14FF0AA
:1066A000010803E0761CE06AB042F3D800BFB8F1FD
:1066B000010F11D1D4E9080150F82100216A41F8F5
:1066C000260014E038000020504F4F4CB2B0B1BA51
:1066D000FEFFFEF8080A0EFC00BF00BF5046FEF7A2
:1066E000D9FF00BF00BF42F28870288079E7D4E963
:1066F000080140F82170606A401C606200BF00BF62
:106700005046FEF7C7FF00BF00BF42F2107028805E
:1067100000BF66E72DE9F84F04460F4615460020F6
:1067200000904FF0FF3B1DB900BFFEF779FE00BFA0
:106730002CB942F2117028805846BDE8F88F27B96D
:1067400042F2117028805846F7E700BF00BFFEF7FD
:106750009DFF009000BF00BF3D49206888420BD0DC
:1067600000BF00BF0098FEF795FF00BF00BF42F2D8
:10677000887028805846E0E739462046FFF7EEFE4D
:106780008046B8F1010F0BD000BF00BF0098FEF7A4
:1067900081FF00BF00BF42F2977028805846CCE7C7
:1067A000002611E0206A50F82600B8420BD100BF45
:1067B00000BF0098FEF76EFF00BF00BF42F2987066
:1067C00028805846B9E7761C606AB042EAD8E16A88
:1067D000606A88420BD300BF00BF0098FEF75AFFE3
:1067E00000BF00BF42F2DD7028805846A5E74FF099
:1067F0000008666A08E0206A50F82690B94502D180
:106800004FF0010803E0761CE06AB042F3D800BF05
:10681000B8F1010F0FD1E06A401EA0EB060A00BFDD
:1068200000BF0098FEF736FF00BF00BF42F21070B5
:106830002880504681E700BF00BF0098FEF72AFF7E
:1068400000BF00BF42F288702880584675E70000FC
:10685000504F4F4C10B502460B461146002001E048
:10686000491C401C19B10C780CB19842F8D310BDEA
:1068700030B504464FF0FF312046FFF7EBFF0546E9
:10688000284630BD70B504460D4616460CB90020AA
:1068900070BD0DB90020FBE721462A46002304E025
:1068A00010780870491C521C5B1C21B11AB1107879
:1068B00008B1B342F4D301B10AB90020E8E7B3420A
:1068C00001D2002008702046E2E770B504460D466C
:1068D0004FF0FF3229462046FFF7D4FF06463046E8
:1068E00070BD70B503460C4615460BB9002070BD4F
:1068F0000CB90020FBE70DB91846F8E7194600E08F
:10690000491C11B108780028FAD109B90020EEE736
:106910002246002604E010780870491C521C761CA0
:1069200021B11AB1107808B1AE42F4D301B10AB95D
:106930000020DCE7002008701846D8E770B5044650
:106940000D464FF0FF3229462046FFF7CAFF0646A4
:10695000304670BD2DE9F04305460B469446BCF128
:10696000000F02D10020BDE8F08335B90BB900203B
:10697000F9E7187842421046F5E713B92A7810462D
:10698000F1E729461C460F4626467F1C761C4FF031
:10699000000805E0491C641C7F1C761C08F10108F6
:1069A000087894F80090484505D1087818B117B1D7
:1069B0000EB1E045EED3E04501D10020D3E70878E1
:1069C00094F80090484505D0087894F80090A0EB22
:1069D00009020BE0087808B9002207E02FB90EB9C8
:1069E000002203E03078424200E03A781046BAE7ED
:1069F00070B504460D464FF0FF3229462046FFF79A
:106A0000A9FF0646304670BD2DE9F74F82B080469B
:106A10000E46049818B9002005B0BDE8F08FB8F113
:106A2000000F09D10EB90020F6E73078FEF73CFFE1
:106A300007467C422046EFE73EB998F80000FEF793
:106A400033FF05462C462046E6E7C146B246C84617
:106A5000C3465646CDF804A0D8460BF1010B019E63
:106A6000701C0190C84699F80000FEF71DFF05460E
:106A700056469AF80000FEF717FF074600200090E0
:106A800015E009F101090AF1010A0BF1010B019866
:106A9000401C01900098401C009099F80000FEF7FF
:106AA00003FF05469AF80000FEF7FEFE0746BD42CA
:106AB0000BD199F8000040B1BBF1000F05D001984F
:106AC00018B1049900988842DBD304990098884251
:106AD00001D10020A0E7BD4201D0EC1B16E00DB9AA
:106AE000002413E0BBF1000F0AD1019808B900247B
:106AF0000CE001990878FEF7D7FE07467C4205E0D6
:106B00009BF80000FEF7D0FE05462C46204683E7A2
:106B100070B504460D464FF0FF3229462046FFF778
:106B200073FF0646304670BD30B504460B46154629
:106B30000CB9002030BD0BB90020FBE72146002234
:106B400001E0491C521C31B1087820B10878A842F4
:106B500001D09A42F5D309B90020EBE79A4201D35C
:106B60000020E7E70878A84201D00020E2E70846C5
:106B7000E0E770B505460C4622464FF0FF31284647
:106B8000FFF7D2FF0646304670BD2DE9F0430546BB
:106B90000E46174615B90020BDE8F0830EB9002057
:106BA000FAE72C46A6F1010949462046FFF752FEB6
:106BB000804644440CB90020EEE700E0641EAC427D
:106BC00002D02078B842F9D12078B84201D0002014
:106BD000E2E72046E0E770B505460C4622464FF056
:106BE000FF312846FFF7D1FF0646304670BD70B52D
:106BF00004460D4616460CB9002070BD0BB90020A6
:106C0000FBE721461A4605E00878A84200D10E703D
:106C1000491C521E19B1087808B1002AF4D1204647
:106C2000EBE7F0B504460D4616464FF0FF3332460B
:106C300029462046FFF7DBFF07463846F0BD2DE921
:106C4000FF4F06460F4615461EB9002004B0BDE8AA
:106C5000F08F0FB90020F9E70DB90020F6E7681CA6
:106C600000D001E04FF0FF30039029463046FFF797
:106C7000F1FD804638460399FFF7ECFD04460CB958
:106C80003046E3E7444501D90020DFE706EB080B77
:106C9000BBF1000F01D10020D8E707EB040BBBF1DB
:106CA000000F01D10020D1E7A8EB040002904FF0C3
:106CB00000090020019000BF06EB09000090224669
:106CC00039460098FFF746FE8246BAF1000F01D11F
:106CD000012000E00020019009F10109019810B99C
:106CE00002988145E8D9BAF1000F01D00020ADE744
:106CF0000098ABE770B504460D464FF0FF322946C9
:106D00002046FFF79CFF0646304670BD2DE9FF4F39
:106D10008DB00F4615461A9E1D9818B9002011B067
:106D2000BDE8F08F00200390012F01DA01200390CD
:106D3000022D01D3242D01D90120039096B33046B2
:106D4000FEF74EFD02900298012802D00120039028
:106D500028E0302E26D0A6F13000C0B207901B9854
:106D6000012804D0A6F14100C0B2069003E0A6F1CC
:106D70006100C0B206900A2D02D80798A84209DB2C
:106D80000A2D09D907980A2804D3A5F10A00069903
:106D9000884201D9012000E00020059005980128D3
:106DA00000D103901D9C0398002846D1DDF834A043
:106DB000DDF834A0CDF830A001200B9007E00B984F
:106DC000401CC0B20B900C98B0FBF5F00C900C98E6
:106DD000A842F4D21098012800D100E000200990C8
:106DE0000B9909980844B84225DC002001900B98C3
:106DF000B84201DA0B9800E038460A903EB1B84636
:106E00000A98391A0998081AC0B2089006E0DDE914
:106E10000910084400F0FF08002008900898002896
:106E200006DD302E01D1012000E00020049004E0B6
:106E30000020049001E001200390039800B1B846BF
:106E400044441C9808B100202070641E4FF00009D3
:106E500041E00398A8BBBAF1000F02D1B9F1000FCD
:106E60001CD1BAFBF5F005FB10A000F0FF0BBBF145
:106E70000A0F04D20BF1300004F801090BE01B9853
:106E8000012804D00BF1370004F8010903E00BF1ED
:106E9000570004F80109BAFBF5FA1AE01098012826
:106EA00010D1049808B9019828B1049850B1A8F1FC
:106EB0000100484506D12D2004F801090120019068
:106EC00007E003E02EB104F8016902E03F2004F876
:106ED000010909F10109C145BBD3039808B100209C
:106EE0001DE71D981BE72DE9FF5F05460E46174677
:106EF0001C46DDE90F9ADDF8388000233A4631461A
:106F000028468DE81007FFF701FF8346584604B076
:106F1000BDE8F09F2DE9FF4F85B0044689461F4626
:106F2000DDE913AB002C02DA6542012601E02546BB
:106F3000002612983346CDE902ABCDE900704946F0
:106F40002846079AFFF7E2FE8046404609B0BDE8B2
:106F5000F08F2DE9FF4F8BB0064689461546B9F1F3
:106F6000000F02D10DF1240900BFC9F80060189884
:106F700010B907A8189000BF0021189801701EB919
:106F800000200FB0BDE8F08F012D01D0242D01D9D4
:106F90000020F6E734462078FEF710FC039004E06A
:106FA000641C2078FEF70AFC039003980128F7D0B0
:106FB00020782B2802D02D280BD103E0641C4FF041
:106FC000000B09E00E98012800D1641C4FF0010B62
:106FD00002E04FF0000B00BF00BF0A9425B1082D5E
:106FE0001CD0102D36D11EE02078302814D1641C1E
:106FF0002078582802D078280BD100BF1025677858
:107000003846FEF7BFFB8246BAF1010F00D1641C7F
:1070100001E0082500BF00E00A251CE020783028A8
:1070200000D1641C17E02078302812D1641C20782D
:10703000582802D078280AD100BF67783846FEF772
:10704000A1FB8246BAF1010F00D1641C00E000BF31
:1070500000BF00E000BF00BF4FF00008002002901A
:10706000019040E027783846FEF73EFB05900598F2
:10707000012836D13846FEF771FB069006980128A4
:1070800004D1A7F13000C0B208900FE03846FEF7F7
:1070900051FB04900498012804D1A7F15700C0B215
:1070A000089003E0A7F13700C0B208900898A84202
:1070B00014DA029880B9304850F82500404509D3C9
:1070C00008FB05F8089880440898804504D2012000
:1070D000029001E001200290641C04E00120019074
:1070E00001E00120019001980028BBD002980128FE
:1070F00001D14FF0FF380A98844202D0C9F800400D
:1071000001E0C9F80060189880F800B0404638E700
:10711000F8B504460D461646002003463246294679
:1071200000902046FFF715FF07463846F8BD2DE9C9
:10713000FC4105460E46174601A801233A46314652
:1071400000902846FFF705FF04469DF8040040B96B
:10715000B4F1004F02D36FF0004000E020468046BB
:1071600007E0B4F1004F02D34FF0004000E060426E
:1071700080464046BDE8FC8178100108002800D117
:107180007047002900D17047002A00D170472DE9CF
:10719000F81F00F0030301F00304A34211D1C3F16F
:1071A000040303F00303012B1DD3012A00D2F2E0F4
:1071B00011F8014B00F8014BA3F10103A2F1010208
:1071C000F1E700F0010301F00104A34200D094E0D4
:1071D000012B44D311F8014B00F8014BA3F101033B
:1071E000A2F10102F4E7B2F5B47F26D3B1E8F81FAB
:1071F000A0E8F81FB1E8F81FA0E8F81FB1E8F81FF1
:10720000A0E8F81FB1E8F81FA0E8F81FB1E8F81FE0
:10721000A0E8F81FB1E8F81FA0E8F81FB1E8F81FD0
:10722000A0E8F81FB1E8F81FA0E8F81FB1E8F81FC0
:10723000A0E8F81FA2F5B472D5E7282A06D3B1E872
:10724000F81FA0E8F81FA2F12802F6E7042A06D3E7
:1072500051F8043B40F8043BA2F10402F6E7202A6F
:1072600042D331F8023B20F8023B31F8023B20F8D0
:10727000023B31F8023B20F8023B31F8023B20F898
:10728000023B31F8023B20F8023B31F8023B20F888
:10729000023B31F8023B20F8023B31F8023B20F878
:1072A000023B31F8023B20F8023B31F8023B20F868
:1072B000023B31F8023B20F8023B31F8023B20F858
:1072C000023B31F8023B20F8023B31F8023B20F848
:1072D000023B31F8023B20F8023B31F8023B20F838
:1072E000023BA2F12002BAE7022A06D331F8023BA0
:1072F00020F8023BA2F10202F6E7102A42D311F86D
:10730000013B00F8013B11F8013B00F8013B11F88B
:10731000013B00F8013B11F8013B00F8013B11F87B
:10732000013B00F8013B11F8013B00F8013B11F86B
:10733000013B00F8013B11F8013B00F8013B11F85B
:10734000013B00F8013B11F8013B00F8013B11F84B
:10735000013B00F8013B11F8013B00F8013B11F83B
:10736000013B00F8013B11F8013B00F8013B11F82B
:10737000013B00F8013B11F8013B00F8013BA2F191
:107380001002BAE7012A06D311F8013B00F8013BCD
:10739000A2F10102F6E7BDE8F81F704710B580487A
:1073A000006810B17E480068804710BD7D4A1168B2
:1073B000002002E0002204C1401C7B4A1268904277
:1073C000F8D3784A1268784B1B6802EB8302121FCD
:1073D000764B1A60704710B57548006810B1744854
:1073E0000068804710BD10B504467248006818B1A7
:1073F000204670490968884710BD10B504466E489C
:10740000006818B120466C490968884710BD10B55E
:1074100004466A48006818B12046684909688847E8
:1074200010BDF0B50446DDE9055602EB85004FF0CE
:10743000807C071F3846C7F800C0071F38463C60ED
:10744000DFF87CC1071F3846C7F800C04FF0123C78
:10745000071F3846C7F800C04FF0033C071F3846E7
:10746000C7F800C04FF0023C071F3846C7F800C0FD
:10747000071F38463B60071F384639604FF0113C04
:10748000071F3846C7F800C04FF0103C071F3846AA
:10749000C7F800C04FF0093C071F3846C7F800C0C6
:1074A0004FF0083C071F3846C7F800C04FF0073CB4
:1074B000071F3846C7F800C04FF0063C071F384684
:1074C000C7F800C04FF0053C071F3846C7F800C09A
:1074D0004FF0043C071F3846C7F800C0F0BD10B598
:1074E0003848006810B137480068804700243648A3
:1074F000006836490968884215D033480068D0F8DA
:107500009800201A30490968C1F894002E48006894
:10751000D0F89C002C490968D1F8941008442A49F5
:107520000968C1F89C0029480068C0F8984010BD5F
:1075300010B52748006810B125480068804710BD85
:1075400010B5002400BF00BFFEF7A0F8044600BF3E
:1075500000BF20480078401C1E49087000BF00BFD3
:107560002046FEF797F800BF00BF05F087F900F04E
:1075700019F910BD01464A1E4FF0E0235A61164A20
:10758000106820F07F4000BF10601A46126942F078
:1075900005021A611A46126942F002021A61704726
:1075A00050000020381101083C1101083C00002067
:1075B0005400002044000020480000204C0000201F
:1075C000CBBF000858000020D8000020DC000020BD
:1075D0005C0000206400002020ED00E07047000007
:1075E000002400BF19E000BF00BFFEF74FF80446BB
:1075F00000BF00BFF7480068401CF6490860F64825
:107600000068401CF449086000BF00BF2046FEF738
:1076100041F800BF00BFFFF7C1FEE4E710B58AB034
:1076200004460020EB4908600B2000210591CDE9BC
:10763000070406910846E9490968E94A1268E94BD6
:107640001B68CDE90132CDE9031013200023AFF20E
:107650006F02E5A10090E94803F06CFC0AB010BD90
:1076600000210AE001EB4102E54B03EB820000221E
:107670000281026042604A1CD1B21429F2D37047E1
:1076800070B50446FFF792FE0020DE490870DE491F
:107690000870DE490870DE490860DE490860DE498E
:1076A0000870DE490870DE490870DE48006858B18D
:1076B000DD48056845B1DB48066803E0761E00201A
:1076C00028602D1D002EF9D10020D8490860D84926
:1076D0000860D8490860D8490860D8490860D84986
:1076E0000860D8490860D849087002F047F9FFF7E8
:1076F000B7FF204601F061FB208800B170BD204635
:1077000001F059FC208800B1F8E7204601F062FC46
:10771000208800B1F2E7204602F01CF9208800B171
:10772000ECE7204602F0BDFC208800B1E6E72046E9
:1077300003F027F8208800B1E0E7204604F03CFC85
:10774000208800B1DAE72046FFF768FF208800B103
:10775000D4E7204604F04CFD208800B1CEE7204657
:1077600003F082FA208800B1C8E7204605F0FCFB50
:10777000208800B1C2E700F0DDFCFFF72FFF00BF5B
:10778000BCE7A1480078012800D070479D480078E8
:10779000FA2800DBF9E79B480078401C99490870FB
:1077A00000BFF2E710B5002497480078012800D008
:1077B00010BD00BFFDF76AFF044600BF9148007886
:1077C00028B900BF2046FDF765FF00BFF0E78D48F0
:1077D0000078401E8B49087008460078002805DDB7
:1077E00000BF2046FDF756FF00BFE1E7874800785D
:1077F000002805DD00BF2046FDF74CFF00BFD7E79E
:1078000002F0C6F8854908700846007800EB400091
:107810007B4951F820007F490860084600687C4990
:107820000968884205D100BF2046FDF733FF00BF3D
:10783000BEE778480068D0F89000401C7549096898
:10784000C1F8900081480068401C804908604FF0F2
:1078500080507F49086000BF2046FDF71BFF00BF36
:1078600000BFA5E710B5002466480078002800DDB9
:1078700010BD66480078002800DDF9E700BFFDF77D
:1078800005FF044600BF02F083F86449087008460B
:10789000007800EB40005A4951F820005D4908602B
:1078A000084600685A490968884205D100BF204649
:1078B000FDF7F0FE00BFDBE756480068D0F8900007
:1078C000401C54490968C1F8900060480068401C99
:1078D0005E4908604FF080505D49086000BF204657
:1078E000FDF7D8FE00BF00BFC2E770B50446002513
:1078F00044480078002803DD46F66250208070BDC1
:1079000041480078012803D045F689602080F6E7D9
:107910003E480078FA2803DB45F209202080EEE794
:1079200000BF00BFFDF7B2FE054600BF00BF3748ED
:107930000078401C3549087000BF00BF2846FDF79D
:10794000A9FE00BF00BF0020208000BFD7E770B5B0
:10795000044600252B480078002803DD46F66550D4
:10796000208070BD28480078012803D045F6896042
:107970002080F6E72548007818B946F66450208044
:10798000EFE700BF00BFFDF781FE054600BF00BF67
:107990001E480078401E1D490870084600780028DF
:1079A0000ADD00BF00BF2846FDF774FE00BF00BF20
:1079B00046F663502080D4E700BF00BF2846FDF79D
:1079C00069FE00BF00BFFFF74DFF0020208000BF11
:1079D000C7E7000060000020980000201411010893
:1079E000101101080C11010875432F4F532D4949FF
:1079F000492049646C65205461736B00A0560020D7
:107A00006C57002064000020650000208A000020E0
:107A1000D8000020DC0000207E0000207F00002035
:107A2000800000203C1101083811010844000020AA
:107A3000480000204C00002050000020540000208E
:107A4000580000205C000020B6000020AC000020A0
:107A500004ED00E010B50446FE480078E8B901F0F6
:107A600097FFFD49087008460078FC490870FA48FD
:107A7000007800EB4000FA4951F82000F94908600D
:107A800008460068F84908600120F249087008F0CB
:107A900011FB43F69920208002E045F68A602080A1
:107AA00010BD01460020088047F25D60704730B588
:107AB00048B14568C1F8BC5000F1080422689368D9
:107AC0001D6AC56113E091F83450022D02D0072DD4
:107AD00008D103E0E5A5C1F8BC5007E0E5A5C1F871
:107AE000BC5003E0E6A5C1F8BC5000BF00BF30BDEC
:107AF000F0B58E6896F8375007893FB9012707819E
:107B000000274F600F600160416023E007897F1C00
:107B10000781026806E0946894F83770AF4200DD90
:107B200002E05268002AF6D100BF32B900274F6048
:107B300043680B60596041600CE017682FB9116011
:107B400000270F604A60016004E013680B604A6020
:107B500059601160F0BD10B5C287016300230AE0CF
:107B600000244C600C600C614C610C83CC6188601B
:107B700020315C1CA3B29342F2DB10BD2DE9F04131
:107B8000054695F8370000EB4000B54901EB80044D
:107B90002F69EE6887B946B90020208120606060B7
:107BA00095F8370001F016FF0EE02089401E208175
:107BB00000203061266007E02089401E2081FE60A1
:107BC0000EB9676000E0376100202861E860BDE819
:107BD000F08138B504460D4685B16B460222294630
:107BE000204604F046FBBDF8000018B9032084F8D5
:107BF000360006E0022084F8360002E0022084F815
:107C000036002046FFF7BAFF38BD2DE9F0410546A2
:107C10000C4616461F469448006880F834600020E1
:107C20009149096881F8350039468F480068FFF7A7
:107C3000D0FF6CB104F10808EC60012229468A48A3
:107C40000068FFF788FF29464046FFF751FF06E02E
:107C5000002085490968C887834909680863824804
:107C600001682046FFF723FFBDE8F08110B50489C5
:107C7000012C03D100240460446011E00C6824B995
:107C80004A680024146002600AE04C6824B90B685A
:107C900000245C60436003E00B684A685A6013602C
:107CA0000489641E048100244C600C6010BD2DE921
:107CB000F0410446256BE68F0AE0D5F80C8008F108
:107CC000080729463846FFF7D1FF2035701E86B2D7
:107CD000002EF2DC0020E0872063BDE8F08130B5A3
:107CE0000346086BCC8F08E0C5689D4202D1036152
:107CF000C26104E02030651EACB2002CF4DC00BF91
:107D000030BD10B590F8373003EB4303544C04EB0F
:107D100083010B893BB901230B810023C3600361FD
:107D20000860486009E00B895B1C0B810B68C3602D
:107D3000002303610A681061086010BD10B590F857
:107D4000373003EB4303464C04EB83010B893BB90B
:107D500001230B810023C36003610860486008E0D1
:107D60000B895B1C0B810023C3604A680261D060F1
:107D7000486010BD10B5044694F8370001F01AFEB3
:107D800094F8370035490978884203D12046FFF737
:107D9000D5FF02E02046FFF7B4FF10BD10B5044642
:107DA000204604F02BF994F8360010F0040F02D1AD
:107DB0002046FFF7DFFF10BD70B505460C4616469E
:107DC00094F83600082866D2DFE800F004050809B8
:107DD00006072A2B00BF00BF00BF5DE000BF94F87C
:107DE0003400032804D1324621462846FFF777FFA6
:107DF0000020E065A4F86000266415B12046FFF776
:107E000056FF2046FFF7CAFF002004F13404A0709B
:107E10004FF0010060704FF0000004F834093BE0BF
:107E200000BF94F83400032804D132462146284686
:107E3000FFF755FF0020E065A4F86000266415B147
:107E40002046FFF734FF204604F0D8F8042004F160
:107E5000340417E0650000207F0000207E00002031
:107E60006C570020DC000020D80000205461736BA8
:107E7000205100005461736B2053656D00000000B9
:107E800020000000A0704FF0010060704FF0000073
:107E900004F8340900E000BF00BF70BD30B5AFF298
:107EA0002005C1F8BC5000F1080422681AB193689B
:107EB0001D6AC56102E0AFF23805C56130BD2DE92C
:107EC000F04304460F4684F83770256BB4F83E80C3
:107ED00013E0D5F80C9009F108063089012807D97C
:107EE00029463046FFF7C2FE29463046FFF700FE1E
:107EF0002035A8F101001FFA80F8B8F1000FE8D191
:107F0000BDE8F08300210160416001817047038971
:107F10005B1C038103684B6000230B60026802B1A5
:107F2000116001600389012B00D14160704730B5B9
:107F30000346086BCC8F08E0C5689D4202D10361FF
:107F4000C26104E02030651EACB2002CF4DC00BF3E
:107F500030BD70B506460C46154694F83600082824
:107F60004BD2DFE800F0040508090607292A00BF04
:107F700000BF00BF42E000BF94F83400032804D1E2
:107F80002A4621463046FFF7D2FF0020E065A4F8DC
:107F9000600025642046FFF78AFE2046FFF7FEFEBC
:107FA000002004F13404A0704FF0020060704FF024
:107FB000000004F8340921E000BF94F834000328DD
:107FC00004D12A4621463046FFF7B1FF0020E06584
:107FD000A4F860002564204604F010F82046FFF75E
:107FE00066FE042004F13404A0704FF002006070BB
:107FF0004FF0000004F8340900E000BF00BF70BD7E
:10800000F0B50446059E086BCD8F0AE0C768A7420D
:1080100004D1046142610383C66104E020306F1E15
:10802000BDB2002DF2DC00BFF0BD2DE9F8430646DD
:108030000C4617469846089D94F83600082853D2F7
:10804000DFE800F00405080906072C2D00BF00BF7B
:1080500000BF4AE000BF94F83400032807D143462C
:108060003A46214630460095FFF7CAFF03E0E76530
:10807000A4F86080256436B12046FFF718FE21463B
:108080003046FFF70BFF2046FFF788FE002004F183
:108090003404A070607004F8340926E000BF94F83E
:1080A0003400032807D143463A462146304600951E
:1080B000FFF7A6FF03E0E765A4F86080256420468B
:1080C00003F09CFF36B12046FFF7F1FD2146304614
:1080D000FFF7E4FE042004F13404A0704FF0000028
:1080E000607004F8340900E000BF00BFBDE8F88309
:1080F00010B501460C8924B1012C03D0022C0CD1FF
:1081000001E000BF14E008684A6802610024C4600E
:108110001461D0600A6048600AE008684A68C36871
:1081200000241C61C4600261D0600B60486000BF25
:1081300000BF10BD244A2549254A264A2649274A18
:108140002748284A284A294A294A2A482A482B4A9D
:108150002B482C4A2C482D4A2D482E482E482F4873
:108160002F4A304A304A3148314A324A324833483D
:1081700033483448344835483548364A364A374A11
:10818000374A384838483948394A3A4A3A4A3B48DF
:108190003B483C483C493D483D4A3E4A3E4A3F4AAE
:1081A0003F4A404A404A4148414A424A424843487D
:1081B000434A444A4448454A454A4648464847484F
:1081C00000BF00BF00BF7047B011010818130108BD
:1081D000B1110108B2110108B4110108B811010868
:1081E000BC110108B9110108E4110108E5110108E9
:1081F000E6110108E8110108EA110108EE11010871
:10820000F0110108101201081212010814120108DD
:1082100016120108181201081A1201081C1201088E
:1082200048120108491201084A1201084C120108BB
:108230004E1201084F120108501201085212010893
:108240005412010856120108581201085A12010866
:108250005C1201088C1201088D1201088E120108AF
:108260008F1201089012010892120108941201085D
:10827000BC120108BD120108BE120108BF1201089C
:10828000C0120108C2120108C4120108C812010874
:10829000C9120108CA120108CB120108CC12010848
:1082A000CD120108CE120108CF120108D012010828
:1082B000D2120108D3120108D4120108D612010803
:1082C000D8120108D9120108DC12010810130108A4
:1082D00011130108121301081413010816130108E1
:1082E000F8A1C16100214161F749096811B9002174
:1082F000816105E0F44909688161F34909684861D1
:10830000F149086070472DE9F04104460F461646D2
:108310001D464FF00008ED480078002804DD42F6C5
:10832000E1602880BDE8F0811CB945F6C350288083
:10833000F8E700BF00BFFDF7A9F9804600BF00BF06
:10834000E3482060676026620020606204F1080054
:10835000FFF7D8FD2046FFF7C3FFDE480088401C2A
:10836000DC49088000BF00BF4046FDF793F900BF1D
:1083700000BF0020288000BFD4E770B50446D6486F
:108380002060D6A060600020206204F10805284625
:10839000FFF7B8FD70BD426981693AB9CA4B1960EF
:1083A00009B100234B610023836109E019B900235F
:1083B0009361436104E091614A61002383614361F9
:1083C00070472DE9FC5F0546884614460020009062
:1083D000BE480078002805DD43F2C9202080002037
:1083E000BDE8FC9F25B945F6C35020800020F7E783
:1083F000B8F1000F03D0B8F1010F02D100E000BFC7
:1084000004E045F6256020800020E9E700BFB04980
:108410002868884204D045F6C45020800020DFE759
:1084200000BF00BFFDF732F9009000BF00BF05F1AB
:108430000809B9F808603746B8F1000F03D0B8F161
:10844000010F48D120E0A7B92846FFF7A4FFA148B3
:108450000088401E9F4908802846FFF78EFF00BF16
:1084600000BF0098FDF716F900BF00BF0020208074
:1084700009E000BF00BF0098FDF70CF900BF00BF86
:1084800047F25F10208031E0002001900AE0D9F827
:1084900000A0DAF808B059462846019AFFF759FDBE
:1084A000701E86B2002EF2D12846FFF774FF89486D
:1084B0000088401E874908802846FFF75EFF00BFFE
:1084C00000BF0098FDF7E6F800BF00BFFFF7CAF94C
:1084D000002020800AE000BF00BF0098FDF7DAF816
:1084E00000BF00BF45F62560208000BF00BF3846B2
:1084F00076E72DE9F04106460F4614461D46DDF8A5
:10850000188078480068C0F8804076480068A0F875
:108510008850002073490968C1F88400434601224D
:1085200039463046FFF771FBBDE8F0812DE9F04F89
:108530008BB00546884693469946DDE914740020C1
:10854000019062480078002806DD46F2AE102080D7
:1085500000200BB0BDE8F08F25B945F6C350208050
:108560000020F6E748F20101A9EB0100894537D068
:108570001ADC40F20111A9EB010089452CD00CDC7A
:10858000B9F1010F24D0B9F1020F22D0B9F1040FD3
:1085900020D0B9F1080F2BD11DE001281DD00328F0
:1085A0001CD0072824D11AE0B0F5807F1CD006DC4F
:1085B000012816D0032815D0072819D113E0A0F5FB
:1085C0008070013811D0022810D0062810D10EE09A
:1085D00000BF00BF00BF00BF00BF00BF00BF00BFA3
:1085E00000BF00BF00BF00BF00BF00BF00BF04E06E
:1085F00045F6256020800020ABE700BF344928689D
:10860000884204D045F6C45020800020A1E719F428
:10861000807F02D04FF0010A01E04FF0000A0FB155
:108620000020386009F00F000A9000BF00BFFDF77E
:108630002DF8019000BF00BF0A9801287ED00228C3
:108640007DD0042802D008287AD15FE0286A00EAA9
:108650000806464517D1BAF1010F02D1286AB04386
:10866000286220480068C0F884600FB1686A3860EA
:1086700000BF00BF0198FDF70DF800BF00BF00204C
:108680002080304665E719F4004F0BD000BF00BFD3
:108690000198FCF7FFFF00BF00BF46F2B01020803A
:1086A000002056E71048007800281FDD00BF00BFFB
:1086B0000198FCF7EFFF00BF00BF46F66350208033
:1086C000002046E720000000680000206400002031
:1086D000464C41476C0000204E4F4E453F464C41B2
:1086E00047000000D80000208A0000204B46424688
:1086F000294602A8CDF800B0FFF7FBFE00BF00BF7F
:108700000198FCF7C7FF00BF00BFF1E0286A00EA4C
:108710000806DEB1BAF1010F02D1286AB04328621F
:10872000FB480068C0F884600FB1686A386000BF19
:1087300000BF0198FCF7AEFF00BF02E035E080E02B
:10874000CAE000BF00202080304602E719F4004F45
:108750000BD000BF00BF0198FCF79CFF00BF00BF1B
:1087600046F2B01020800020F3E6EA4800780028A6
:108770000BDD00BF00BF0198FCF78CFF00BF00BFFE
:1087800046F6635020800020E3E64B4642462946E9
:1087900002A8CDF800B0FFF7ACFE00BF00BF019803
:1087A000FCF778FF00BF00BFA2E0286A28EA0006B5
:1087B000464517D1BAF1010F02D1286A3043286229
:1087C000D3480068C0F884600FB1686A386000BFA1
:1087D00000BF0198FCF75EFF00BF00BF00202080B3
:1087E0003046B6E619F4004F0BD000BF00BF019829
:1087F000FCF750FF00BF00BF46F2B0102080002001
:10880000A7E6C448007800280BDD00BF00BF019830
:10881000FCF740FF00BF00BF46F6635020800020F9
:1088200097E64B464246294602A8CDF800B0FFF72E
:1088300060FE00BF00BF0198FCF72CFF00BF00BF27
:1088400056E0286A28EA0006BEB1BAF1010F02D14B
:10885000286A30432862AE480068C0F884600FB1CF
:10886000686A386000BF00BF0198FCF713FF00BFC3
:1088700000BF0020208030466BE619F4004F0BD07B
:1088800000BF00BF0198FCF705FF00BF00BF46F224
:10889000B010208000205CE69E48007800280BDDA8
:1088A00000BF00BF0198FCF7F5FE00BF00BF46F611
:1088B0006350208000204CE64B464246294602A8E1
:1088C000CDF800B0FFF715FE00BF00BF0198FCF720
:1088D000E1FE00BF00BF0BE000BF00BF0198FCF746
:1088E000D9FE00BF00BF45F625602080002030E69D
:1088F00000BFFEF7B7FF00BF00BFFCF7C7FE019047
:1089000000BF00BF8248006890F8350030B10128F0
:108910000CD0022828D0032836D117E01FB17C489C
:108920000068006C38600020208038E01FB1784873
:108930000068006C386000BF00BF0198FCF7AAFE19
:1089400000BF00BF46F2A910208028E00FB1002030
:10895000386000BF00BF0198FCF79CFE00BF00BF5D
:1089600047F2D92020801AE01FB169480068006CE6
:10897000386000BF00BF0198FCF78CFE00BF00BF4D
:1089800045F6C25020800AE000BF00BF0198FCF706
:1089900081FE00BF00BF46F62E60208000BF00BFF2
:1089A000208808B10020D4E559480068D0F88460D8
:1089B000BAF1010F20D10A9801280BD002280AD061
:1089C000042802D008280AD100E000BF286AB0437A
:1089D000286210E000BF286A304328620BE000BF25
:1089E00000BF0198FCF756FE00BF00BF45F62560AA
:1089F00020800020ADE500BF00BF00BF0198FCF75C
:108A000049FE00BF00BF002020803046A1E52DE9CF
:108A1000F05F05460E4614464FF0000B3E480078C6
:108A2000002805DD46F2AA1020800020BDE8F09F56
:108A300025B945F6C35020800020F7E74EB1B6F5C2
:108A4000807F07D0B6F5004F05D0B6F5014F04D1B1
:108A500002E000BF00BF00BF04E045F625602080B3
:108A60000020E3E700BF2D492868884204D045F67E
:108A7000C45020800020D9E700BF00BFFCF706FEED
:108A8000834600BF00BF05F10807388958B900BF09
:108A900000BF5846FCF7FEFD00BF00BF46F2AB101A
:108AA00020800020C2E74FF00008C2460FE038687F
:108AB000D0F80890524649462846FFF77DF908F15C
:108AC00001001FFA80F8B6F5807F00D002E03889F7
:108AD0000028ECDC00BF00BF00BF5846FCF7DAFD01
:108AE00000BF00BF16F4004F01D1FEF7BBFE00200F
:108AF000208040469AE770B5044600260648007874
:108B000000280DDD46F2AE102080002070BD000070
:108B1000D80000208A00002064000020464C414715
:108B200000BF00BFFCF7B2FD064600BF00BFA6486D
:108B30000068D0F8845000BF00BF3046FCF7AAFDA3
:108B400000BF00BF002020802846DFE770B5044644
:108B50000D46164604F1340425654FF000006070A0
:108B60002070E660A078A4F13404082816D2DFE86B
:108B700000F0040508090706101100BF00BF00BF80
:108B80000DE000BF2046FFF709F9002084F8360009
:108B900005E000BF042084F8360000E000BF00BFFD
:108BA0002046FFF784F870BD2DE9F04F85B00446EC
:108BB000894692469B46DDF838800020009000BF31
:108BC00000BFFCF763FD009000BF00BFBAF1000FCB
:108BD0000BD0BAF1010F0ED0BAF5004F06D06FF4EA
:108BE00000401AEB00000CD106E000BF206A40EA0A
:108BF0000900206214E000BF206A20EA0900206218
:108C00000EE000BF00BF0098FCF744FD00BF00BFAE
:108C100045F62560A8F80000002005B0BDE8F08FFB
:108C200000BFC4F824B004F1080001900198008945
:108C300058B900BF00BF0098FCF72CFD00BF00BF73
:108C40000020A8F80000206AE7E701980768BD68DF
:108C500059E07868029095F8880000F00F000390C2
:108C60000398012821D002282ED0042802D00828F9
:108C700036D10EE0206AD5F8801000EA0106D5F85A
:108C80008000B04204D15A4631462846FFF75EFFC5
:108C900033E0206AD5F8801000EA010626B15A4672
:108CA00031462846FFF752FF27E0D5F88000216AB9
:108CB00020EA0106D5F88000B04204D15A46314678
:108CC0002846FFF743FF18E0D5F88000216A20EA24
:108CD000010626B15A4631462846FFF737FF0CE019
:108CE00000BF00BF0098FCF7D5FC00BF00BF43F6F3
:108CF000FF20A8F8000000208FE700BF029F0FB1FF
:108D0000BD6800E00025002DA3D100BF00BF009882
:108D1000FCF7C0FC00BF00BF1AF4004F01D1FEF702
:108D2000A1FD00BF00BFFCF7B1FC009000BF00BF79
:108D3000206A049000BF00BF0098FCF7ABFC00BFA6
:108D400000BF0020A8F80000049866E72DE9F8436A
:108D50000546894616461C462DB945F6C350208067
:108D60000020BDE8F8834EB1012E08D0B6F5004FC3
:108D700006D06FF40040301804D102E000BF00BFFD
:108D800000BF04E045F6256020800020E9E700BF31
:108D90000E492868884204D045F6C450208000203F
:108DA000DFE74FF000084346324649462846009424
:108DB000FFF7FAFE07463846D3E70021044A116060
:108DC000044A118001807047D8000020464C41477A
:108DD000680000206C000020002181617949096849
:108DE00011B90021C16105E076490968C161754981
:108DF000096888617349086070472DE9FF4F83B0A7
:108E0000044615461F46DDE91096002000906E4886
:108E10000078002805DD45F2B960308007B0BDE874
:108E2000F08F1DB945F2BB603080F7E7022F03DAFF
:108E300045F2BC603080F1E7B9F1040F03D245F28E
:108E4000C1603080EAE74FF0030ABAF1000F0DD09D
:108E500015EA0A0F03D045F2BB603080DEE719EA5D
:108E60000A0F03D045F2C1603080D7E7AB46A84671
:108E7000781E80B201900020029007E0C844CBF831
:108E80000080C3460298401C80B20290DDE90110C8
:108E90008842F3DB0020CBF8000000BF00BFFCF7E6
:108EA000F5FB009000BF00BF484820600498A06018
:108EB0006560E560A7826782A4F810902046FFF7FE
:108EC0008BFF43480088401C4149088000BF00BF19
:108ED0000098FCF7DFFB00BF00BF0020308000BF20
:108EE0009CE72DE9F04104460D4600272CB945F2D8
:108EF000BF6028800020BDE8F08100BF00BFFCF704
:108F0000C5FB074600BF00BFA08A58B900BF00BF1D
:108F10003846FCF7BFFB00BF00BF45F2C2602880A7
:108F20000020E8E7E6683068E060A08A401EA08282
:108F300000BF00BF3846FCF7ADFB00BF00BF0020FC
:108F400028803046D7E72DE9F04104460E46154605
:108F5000002724B945F2BF602880BDE8F0811EB922
:108F600045F2BE602880F8E700BF00BFFCF78EFB2B
:108F7000074600BF00BFA08A618A88420ADB00BFA3
:108F800000BF3846FCF786FB00BF00BF45F2BA6061
:108F90002880E2E7E0683060E660A08A401CA0829A
:108FA00000BF00BF3846FCF775FB00BF00BF0020C4
:108FB000288000BFD1E70021024A1160044A1180D5
:108FC0000180704770000020640000204D454D2056
:108FD0007400002070B50146844D2D681DB945F21E
:108FE0001E750D8070BD824D2D881DB945F21D7511
:108FF0000D80F7E77D4D28682A6810327C4D2D885A
:109000006D1EACB2002308E00260002545600581BA
:10901000C560103010325D1CABB2A342F4DB0025FA
:10902000056045600581C560704D2D68714E3560E5
:109030006F4D2D88B5800025F58035810D8000BFEE
:10904000D0E710B5014648894B89002B17DD0A6827
:10905000684B1B681360674C4B6823602346DB88B2
:109060004C891B1B634CE38023469B884C8923441B
:10907000604CA38000234B818B810B604B6010BD43
:109080000181002242818281026042607047F0B516
:1090900004460D46608940B90020288002B1106066
:1090A00046F2925018800020F0BD61684E68088931
:1090B00028800AB1C868106008686060606818B9E4
:1090C00000202060608102E06089401E6081494884
:1090D00000680860474801608088401C454FB880A0
:1090E0003846C088401EF880002018803046DBE7F4
:1090F0002DE9F0410D46DDE90674B0F80AC0B0F87C
:109100000880C44505DB46F2935CA4F800C0BDE8C6
:10911000F081DFF8E0C0BCF804C0BCF1000F04D15E
:1091200045F21D7CA4F800C0F1E7DFF8C8C0DCF808
:109130000010DFF8C080D1F800C0C8F800C0C446F5
:10914000BCF804C0ACF1010CA8F804C0C446BCF8DB
:1091500006C00CF1010CA8F806C0C446BCF808C053
:10916000B8F80680C44507DADFF888C0BCF806C046
:10917000DFF88080A8F808C0B0F80AC0BCF1000F82
:109180000AD1016041604FF0010CA0F80AC04FF015
:10919000000CC1F800C015E013F0100F07D10668ED
:1091A000316001604FF0000CC1F800C004E0D0F85D
:1091B00004C0C1F800C04160B0F80AC00CF1010C55
:1091C000A0F80AC0B0F80CC0B0F80A80C44503DAB1
:1091D000B0F80AC0A0F80CC04D600A81CF604FF013
:1091E000000CA4F800C000BF91E700004C1101087A
:1091F0004411010860570020FEA1C16100214161B6
:10920000FD49096811B90021816105E0FA49096841
:109210008161F94909684861F749086070472DE99B
:10922000F04104460E4615460027F4480078002811
:1092300004DD42F6E1602880BDE8F0811CB945F606
:10924000C3502880F8E700BF00BFFCF71FFA0746AD
:1092500000BF00BFEA48206066600020206284F8FA
:109260002500A062142084F8240004F10800FEF711
:1092700049FE2046FFF7C0FFE2480088401CE14954
:10928000088000BF00BF3846FCF704FA00BF00BFEB
:109290000020288000BFCFE710B50446DA482060E0
:1092A000DAA060600020206284F82500A06214200B
:1092B00084F8240004F10800FEF724FE10BD426982
:1092C00081693AB9CC4B196009B100234B61002385
:1092D000836109E019B900239361436104E091615E
